{
  "_format": "hh-sol-artifact-1",
  "contractName": "Dice",
  "sourceName": "contracts/Dice.sol",
  "abi": [
    {
      "inputs": [],
      "stateMutability": "nonpayable",
      "type": "constructor"
    },
    {
      "inputs": [],
      "name": "ReentrancyGuardReentrantCall",
      "type": "error"
    },
    {
      "anonymous": false,
      "inputs": [
        {
          "indexed": true,
          "internalType": "uint256",
          "name": "requestId",
          "type": "uint256"
        },
        {
          "indexed": true,
          "internalType": "address",
          "name": "player",
          "type": "address"
        }
      ],
      "name": "DiceRequest",
      "type": "event"
    },
    {
      "anonymous": false,
      "inputs": [
        {
          "indexed": true,
          "internalType": "uint256",
          "name": "requestId",
          "type": "uint256"
        },
        {
          "indexed": false,
          "internalType": "bool",
          "name": "didWin",
          "type": "bool"
        },
        {
          "indexed": false,
          "internalType": "uint256",
          "name": "roll1",
          "type": "uint256"
        },
        {
          "indexed": false,
          "internalType": "uint256",
          "name": "roll2",
          "type": "uint256"
        },
        {
          "indexed": false,
          "internalType": "uint256",
          "name": "total",
          "type": "uint256"
        }
      ],
      "name": "DiceResult",
      "type": "event"
    },
    {
      "inputs": [],
      "name": "fundContract",
      "outputs": [],
      "stateMutability": "payable",
      "type": "function"
    },
    {
      "inputs": [],
      "name": "getBalance",
      "outputs": [
        {
          "internalType": "uint256",
          "name": "",
          "type": "uint256"
        }
      ],
      "stateMutability": "view",
      "type": "function"
    },
    {
      "inputs": [
        {
          "internalType": "uint256",
          "name": "requestId",
          "type": "uint256"
        }
      ],
      "name": "getStatus",
      "outputs": [
        {
          "components": [
            {
              "internalType": "uint256",
              "name": "stakedAmount",
              "type": "uint256"
            },
            {
              "internalType": "uint256",
              "name": "fees",
              "type": "uint256"
            },
            {
              "internalType": "uint256",
              "name": "randomWord1",
              "type": "uint256"
            },
            {
              "internalType": "uint256",
              "name": "randomWord2",
              "type": "uint256"
            },
            {
              "internalType": "address",
              "name": "player",
              "type": "address"
            },
            {
              "internalType": "bool",
              "name": "didWin",
              "type": "bool"
            },
            {
              "internalType": "bool",
              "name": "fulfilled",
              "type": "bool"
            },
            {
              "internalType": "enum Dice.DiceSelection",
              "name": "choice",
              "type": "uint8"
            }
          ],
          "internalType": "struct Dice.DiceStatus",
          "name": "",
          "type": "tuple"
        }
      ],
      "stateMutability": "view",
      "type": "function"
    },
    {
      "inputs": [],
      "name": "houseFee",
      "outputs": [
        {
          "internalType": "uint256",
          "name": "",
          "type": "uint256"
        }
      ],
      "stateMutability": "view",
      "type": "function"
    },
    {
      "inputs": [],
      "name": "owner",
      "outputs": [
        {
          "internalType": "address",
          "name": "",
          "type": "address"
        }
      ],
      "stateMutability": "view",
      "type": "function"
    },
    {
      "inputs": [
        {
          "internalType": "enum Dice.DiceSelection",
          "name": "choice",
          "type": "uint8"
        }
      ],
      "name": "roll",
      "outputs": [
        {
          "internalType": "uint256",
          "name": "",
          "type": "uint256"
        }
      ],
      "stateMutability": "payable",
      "type": "function"
    },
    {
      "inputs": [
        {
          "internalType": "uint256",
          "name": "_fee",
          "type": "uint256"
        }
      ],
      "name": "setHouseFee",
      "outputs": [],
      "stateMutability": "nonpayable",
      "type": "function"
    },
    {
      "inputs": [
        {
          "internalType": "uint256",
          "name": "",
          "type": "uint256"
        }
      ],
      "name": "statuses",
      "outputs": [
        {
          "internalType": "uint256",
          "name": "stakedAmount",
          "type": "uint256"
        },
        {
          "internalType": "uint256",
          "name": "fees",
          "type": "uint256"
        },
        {
          "internalType": "uint256",
          "name": "randomWord1",
          "type": "uint256"
        },
        {
          "internalType": "uint256",
          "name": "randomWord2",
          "type": "uint256"
        },
        {
          "internalType": "address",
          "name": "player",
          "type": "address"
        },
        {
          "internalType": "bool",
          "name": "didWin",
          "type": "bool"
        },
        {
          "internalType": "bool",
          "name": "fulfilled",
          "type": "bool"
        },
        {
          "internalType": "enum Dice.DiceSelection",
          "name": "choice",
          "type": "uint8"
        }
      ],
      "stateMutability": "view",
      "type": "function"
    },
    {
      "inputs": [
        {
          "internalType": "uint256",
          "name": "amount",
          "type": "uint256"
        }
      ],
      "name": "withdraw",
      "outputs": [],
      "stateMutability": "nonpayable",
      "type": "function"
    },
    {
      "stateMutability": "payable",
      "type": "receive"
    }
  ],
  "bytecode": "0x60806040526005805534801561001457600080fd5b50600160008190555033600460006101000a81548173ffffffffffffffffffffffffffffffffffffffff021916908373ffffffffffffffffffffffffffffffffffffffff1602179055506000600381905550611a79806100756000396000f3fe60806040526004361061008a5760003560e01c80635c622a0e116100595780635c622a0e1461013e5780636bf0f4a11461017b5780638da5cb5b146101ab578063bd097e21146101d6578063e67b932c146101e057610091565b80630ed469b81461009657806312065fe0146100c15780632e1a7d4d146100ec5780635a09f2f41461011557610091565b3661009157005b600080fd5b3480156100a257600080fd5b506100ab610224565b6040516100b89190610ed7565b60405180910390f35b3480156100cd57600080fd5b506100d661022a565b6040516100e39190610ed7565b60405180910390f35b3480156100f857600080fd5b50610113600480360381019061010e9190610f23565b610232565b005b34801561012157600080fd5b5061013c60048036038101906101379190610f23565b6103d7565b005b34801561014a57600080fd5b5061016560048036038101906101609190610f23565b6104b5565b60405161017291906110d4565b60405180910390f35b61019560048036038101906101909190611115565b6105d2565b6040516101a29190610ed7565b60405180910390f35b3480156101b757600080fd5b506101c0610a84565b6040516101cd9190611151565b60405180910390f35b6101de610aaa565b005b3480156101ec57600080fd5b5061020760048036038101906102029190610f23565b610b3c565b60405161021b98979695949392919061118a565b60405180910390f35b60055481565b600047905090565b600460009054906101000a900473ffffffffffffffffffffffffffffffffffffffff1673ffffffffffffffffffffffffffffffffffffffff163373ffffffffffffffffffffffffffffffffffffffff16146102c2576040517f08c379a00000000000000000000000000000000000000000000000000000000081526004016102b990611265565b60405180910390fd5b47811115610305576040517f08c379a00000000000000000000000000000000000000000000000000000000081526004016102fc906112d1565b60405180910390fd5b6000600460009054906101000a900473ffffffffffffffffffffffffffffffffffffffff1673ffffffffffffffffffffffffffffffffffffffff168260405161034d90611322565b60006040518083038185875af1925050503d806000811461038a576040519150601f19603f3d011682016040523d82523d6000602084013e61038f565b606091505b50509050806103d3576040517f08c379a00000000000000000000000000000000000000000000000000000000081526004016103ca90611383565b60405180910390fd5b5050565b600460009054906101000a900473ffffffffffffffffffffffffffffffffffffffff1673ffffffffffffffffffffffffffffffffffffffff163373ffffffffffffffffffffffffffffffffffffffff1614610467576040517f08c379a000000000000000000000000000000000000000000000000000000000815260040161045e90611265565b60405180910390fd5b600a8111156104ab576040517f08c379a00000000000000000000000000000000000000000000000000000000081526004016104a2906113ef565b60405180910390fd5b8060058190555050565b6104bd610e4d565b6001600083815260200190815260200160002060405180610100016040529081600082015481526020016001820154815260200160028201548152602001600382015481526020016004820160009054906101000a900473ffffffffffffffffffffffffffffffffffffffff1673ffffffffffffffffffffffffffffffffffffffff1673ffffffffffffffffffffffffffffffffffffffff1681526020016004820160149054906101000a900460ff161515151581526020016004820160159054906101000a900460ff161515151581526020016004820160169054906101000a900460ff1660018111156105b5576105b4610fbb565b5b60018111156105c7576105c6610fbb565b5b815250509050919050565b60006105dc610bcb565b6000341161061f576040517f08c379a00000000000000000000000000000000000000000000000000000000081526004016106169061145b565b60405180910390fd5b600a4761062c91906114d9565b34111561066e576040517f08c379a000000000000000000000000000000000000000000000000000000000815260040161066590611556565b60405180910390fd5b60006002600081548092919061068390611576565b91905055905060006106b960016106ab600661069d610c11565b610c6290919063ffffffff16565b610cba90919063ffffffff16565b905060006106eb60016106dd60066106cf610c11565b610c6290919063ffffffff16565b610cba90919063ffffffff16565b905060006107028284610cba90919063ffffffff16565b9050600080600181111561071957610718610fbb565b5b87600181111561072c5761072b610fbb565b5b1480156107395750600682115b156107475760019050610785565b60018081111561075a57610759610fbb565b5b87600181111561076d5761076c610fbb565b5b14801561077a5750600682105b1561078457600190505b5b60006107af60646107a160055434610d1890919063ffffffff16565b610d9290919063ffffffff16565b90506040518061010001604052803481526020018281526020018681526020018581526020013373ffffffffffffffffffffffffffffffffffffffff168152602001831515815260200160011515815260200189600181111561081557610814610fbb565b5b815250600160008881526020019081526020016000206000820151816000015560208201518160010155604082015181600201556060820151816003015560808201518160040160006101000a81548173ffffffffffffffffffffffffffffffffffffffff021916908373ffffffffffffffffffffffffffffffffffffffff16021790555060a08201518160040160146101000a81548160ff02191690831515021790555060c08201518160040160156101000a81548160ff02191690831515021790555060e08201518160040160166101000a81548160ff0219169083600181111561090557610904610fbb565b5b02179055509050503373ffffffffffffffffffffffffffffffffffffffff16867f62270b6d04f385f549d9100cfe954a784c3d04cd86416e7735b54ec41877e11f60405160405180910390a3857fe3076aa986ac316ea1ee8d81fbf9a5552dfcfd058e10144afd863b08ae580ad18387878760405161098794939291906115be565b60405180910390a28115610a6e5760006109bd826109af600234610d1890919063ffffffff16565b610dea90919063ffffffff16565b905060003373ffffffffffffffffffffffffffffffffffffffff16826040516109e590611322565b60006040518083038185875af1925050503d8060008114610a22576040519150601f19603f3d011682016040523d82523d6000602084013e610a27565b606091505b5050905080610a6b576040517f08c379a0000000000000000000000000000000000000000000000000000000008152600401610a629061164f565b60405180910390fd5b50505b859650505050505050610a7f610e43565b919050565b600460009054906101000a900473ffffffffffffffffffffffffffffffffffffffff1681565b600460009054906101000a900473ffffffffffffffffffffffffffffffffffffffff1673ffffffffffffffffffffffffffffffffffffffff163373ffffffffffffffffffffffffffffffffffffffff1614610b3a576040517f08c379a0000000000000000000000000000000000000000000000000000000008152600401610b3190611265565b60405180910390fd5b565b60016020528060005260406000206000915090508060000154908060010154908060020154908060030154908060040160009054906101000a900473ffffffffffffffffffffffffffffffffffffffff16908060040160149054906101000a900460ff16908060040160159054906101000a900460ff16908060040160169054906101000a900460ff16905088565b600260005403610c07576040517f3ee5aeb500000000000000000000000000000000000000000000000000000000815260040160405180910390fd5b6002600081905550565b600060036000815480929190610c2690611576565b9190505550424433600354604051602001610c4494939291906116d8565b6040516020818303038152906040528051906020012060001c905090565b6000808211610ca6576040517f08c379a0000000000000000000000000000000000000000000000000000000008152600401610c9d90611772565b60405180910390fd5b8183610cb29190611792565b905092915050565b6000808284610cc991906117c3565b905083811015610d0e576040517f08c379a0000000000000000000000000000000000000000000000000000000008152600401610d0590611843565b60405180910390fd5b8091505092915050565b6000808303610d2a5760009050610d8c565b60008284610d389190611863565b9050828482610d4791906114d9565b14610d87576040517f08c379a0000000000000000000000000000000000000000000000000000000008152600401610d7e90611917565b60405180910390fd5b809150505b92915050565b6000808211610dd6576040517f08c379a0000000000000000000000000000000000000000000000000000000008152600401610dcd90611983565b60405180910390fd5b8183610de291906114d9565b905092915050565b600082821115610e2f576040517f08c379a0000000000000000000000000000000000000000000000000000000008152600401610e26906119ef565b60405180910390fd5b8183610e3b9190611a0f565b905092915050565b6001600081905550565b60405180610100016040528060008152602001600081526020016000815260200160008152602001600073ffffffffffffffffffffffffffffffffffffffff16815260200160001515815260200160001515815260200160006001811115610eb857610eb7610fbb565b5b81525090565b6000819050919050565b610ed181610ebe565b82525050565b6000602082019050610eec6000830184610ec8565b92915050565b600080fd5b610f0081610ebe565b8114610f0b57600080fd5b50565b600081359050610f1d81610ef7565b92915050565b600060208284031215610f3957610f38610ef2565b5b6000610f4784828501610f0e565b91505092915050565b610f5981610ebe565b82525050565b600073ffffffffffffffffffffffffffffffffffffffff82169050919050565b6000610f8a82610f5f565b9050919050565b610f9a81610f7f565b82525050565b60008115159050919050565b610fb581610fa0565b82525050565b7f4e487b7100000000000000000000000000000000000000000000000000000000600052602160045260246000fd5b60028110610ffb57610ffa610fbb565b5b50565b600081905061100c82610fea565b919050565b600061101c82610ffe565b9050919050565b61102c81611011565b82525050565b610100820160008201516110496000850182610f50565b50602082015161105c6020850182610f50565b50604082015161106f6040850182610f50565b5060608201516110826060850182610f50565b5060808201516110956080850182610f91565b5060a08201516110a860a0850182610fac565b5060c08201516110bb60c0850182610fac565b5060e08201516110ce60e0850182611023565b50505050565b6000610100820190506110ea6000830184611032565b92915050565b600281106110fd57600080fd5b50565b60008135905061110f816110f0565b92915050565b60006020828403121561112b5761112a610ef2565b5b600061113984828501611100565b91505092915050565b61114b81610f7f565b82525050565b60006020820190506111666000830184611142565b92915050565b61117581610fa0565b82525050565b61118481611011565b82525050565b6000610100820190506111a0600083018b610ec8565b6111ad602083018a610ec8565b6111ba6040830189610ec8565b6111c76060830188610ec8565b6111d46080830187611142565b6111e160a083018661116c565b6111ee60c083018561116c565b6111fb60e083018461117b565b9998505050505050505050565b600082825260208201905092915050565b7f4f6e6c79206f776e657200000000000000000000000000000000000000000000600082015250565b600061124f600a83611208565b915061125a82611219565b602082019050919050565b6000602082019050818103600083015261127e81611242565b9050919050565b7f496e73756666696369656e742062616c616e6365000000000000000000000000600082015250565b60006112bb601483611208565b91506112c682611285565b602082019050919050565b600060208201905081810360008301526112ea816112ae565b9050919050565b600081905092915050565b50565b600061130c6000836112f1565b9150611317826112fc565b600082019050919050565b600061132d826112ff565b9150819050919050565b7f5769746864726177616c206661696c6564000000000000000000000000000000600082015250565b600061136d601183611208565b915061137882611337565b602082019050919050565b6000602082019050818103600083015261139c81611360565b9050919050565b7f46656520746f6f20686967680000000000000000000000000000000000000000600082015250565b60006113d9600c83611208565b91506113e4826113a3565b602082019050919050565b60006020820190508181036000830152611408816113cc565b9050919050565b7f4d7573742073656e642042544320746f20706c61790000000000000000000000600082015250565b6000611445601583611208565b91506114508261140f565b602082019050919050565b6000602082019050818103600083015261147481611438565b9050919050565b7f4e487b7100000000000000000000000000000000000000000000000000000000600052601260045260246000fd5b7f4e487b7100000000000000000000000000000000000000000000000000000000600052601160045260246000fd5b60006114e482610ebe565b91506114ef83610ebe565b9250826114ff576114fe61147b565b5b828204905092915050565b7f42657420746f6f20686967680000000000000000000000000000000000000000600082015250565b6000611540600c83611208565b915061154b8261150a565b602082019050919050565b6000602082019050818103600083015261156f81611533565b9050919050565b600061158182610ebe565b91507fffffffffffffffffffffffffffffffffffffffffffffffffffffffffffffffff82036115b3576115b26114aa565b5b600182019050919050565b60006080820190506115d3600083018761116c565b6115e06020830186610ec8565b6115ed6040830185610ec8565b6115fa6060830184610ec8565b95945050505050565b7f5472616e73666572206661696c65640000000000000000000000000000000000600082015250565b6000611639600f83611208565b915061164482611603565b602082019050919050565b600060208201905081810360008301526116688161162c565b9050919050565b6000819050919050565b61168a61168582610ebe565b61166f565b82525050565b60008160601b9050919050565b60006116a882611690565b9050919050565b60006116ba8261169d565b9050919050565b6116d26116cd82610f7f565b6116af565b82525050565b60006116e48287611679565b6020820191506116f48286611679565b60208201915061170482856116c1565b6014820191506117148284611679565b60208201915081905095945050505050565b7f536166654d6174683a206d6f64756c6f206279207a65726f0000000000000000600082015250565b600061175c601883611208565b915061176782611726565b602082019050919050565b6000602082019050818103600083015261178b8161174f565b9050919050565b600061179d82610ebe565b91506117a883610ebe565b9250826117b8576117b761147b565b5b828206905092915050565b60006117ce82610ebe565b91506117d983610ebe565b92508282019050808211156117f1576117f06114aa565b5b92915050565b7f536166654d6174683a206164646974696f6e206f766572666c6f770000000000600082015250565b600061182d601b83611208565b9150611838826117f7565b602082019050919050565b6000602082019050818103600083015261185c81611820565b9050919050565b600061186e82610ebe565b915061187983610ebe565b925082820261188781610ebe565b9150828204841483151761189e5761189d6114aa565b5b5092915050565b7f536166654d6174683a206d756c7469706c69636174696f6e206f766572666c6f60008201527f7700000000000000000000000000000000000000000000000000000000000000602082015250565b6000611901602183611208565b915061190c826118a5565b604082019050919050565b60006020820190508181036000830152611930816118f4565b9050919050565b7f536166654d6174683a206469766973696f6e206279207a65726f000000000000600082015250565b600061196d601a83611208565b915061197882611937565b602082019050919050565b6000602082019050818103600083015261199c81611960565b9050919050565b7f536166654d6174683a207375627472616374696f6e206f766572666c6f770000600082015250565b60006119d9601e83611208565b91506119e4826119a3565b602082019050919050565b60006020820190508181036000830152611a08816119cc565b9050919050565b6000611a1a82610ebe565b9150611a2583610ebe565b9250828203905081811115611a3d57611a3c6114aa565b5b9291505056fea264697066735822122034699c75e96efadc7c4fee951483cef0a2d131d32465676d3ba7596336f9dd5764736f6c63430008140033",
  "linkReferences": {},
  "deployedLinkReferences": {}
}