{
  "_format": "hh-sol-artifact-1",
  "contractName": "Wheel",
  "sourceName": "contracts/Wheel.sol",
  "abi": [
    {
      "inputs": [],
      "stateMutability": "nonpayable",
      "type": "constructor"
    },
    {
      "inputs": [],
      "name": "ReentrancyGuardReentrantCall",
      "type": "error"
    },
    {
      "anonymous": false,
      "inputs": [
        {
          "indexed": true,
          "internalType": "uint256",
          "name": "requestId",
          "type": "uint256"
        },
        {
          "indexed": true,
          "internalType": "address",
          "name": "player",
          "type": "address"
        }
      ],
      "name": "WheelRequest",
      "type": "event"
    },
    {
      "anonymous": false,
      "inputs": [
        {
          "indexed": true,
          "internalType": "uint256",
          "name": "requestId",
          "type": "uint256"
        },
        {
          "indexed": false,
          "internalType": "bool",
          "name": "didWin",
          "type": "bool"
        },
        {
          "indexed": false,
          "internalType": "uint256",
          "name": "wheelNumber",
          "type": "uint256"
        },
        {
          "indexed": false,
          "internalType": "uint256",
          "name": "payout",
          "type": "uint256"
        }
      ],
      "name": "WheelResult",
      "type": "event"
    },
    {
      "inputs": [],
      "name": "fundContract",
      "outputs": [],
      "stateMutability": "payable",
      "type": "function"
    },
    {
      "inputs": [],
      "name": "getBalance",
      "outputs": [
        {
          "internalType": "uint256",
          "name": "",
          "type": "uint256"
        }
      ],
      "stateMutability": "view",
      "type": "function"
    },
    {
      "inputs": [
        {
          "internalType": "uint256",
          "name": "requestId",
          "type": "uint256"
        }
      ],
      "name": "getStatus",
      "outputs": [
        {
          "components": [
            {
              "internalType": "uint256",
              "name": "stakedAmount",
              "type": "uint256"
            },
            {
              "internalType": "uint256",
              "name": "fees",
              "type": "uint256"
            },
            {
              "internalType": "uint256",
              "name": "randomWord",
              "type": "uint256"
            },
            {
              "internalType": "address",
              "name": "player",
              "type": "address"
            },
            {
              "internalType": "bool",
              "name": "didWin",
              "type": "bool"
            },
            {
              "internalType": "bool",
              "name": "fulfilled",
              "type": "bool"
            }
          ],
          "internalType": "struct Wheel.WheelStatus",
          "name": "",
          "type": "tuple"
        }
      ],
      "stateMutability": "view",
      "type": "function"
    },
    {
      "inputs": [],
      "name": "houseFee",
      "outputs": [
        {
          "internalType": "uint256",
          "name": "",
          "type": "uint256"
        }
      ],
      "stateMutability": "view",
      "type": "function"
    },
    {
      "inputs": [],
      "name": "owner",
      "outputs": [
        {
          "internalType": "address",
          "name": "",
          "type": "address"
        }
      ],
      "stateMutability": "view",
      "type": "function"
    },
    {
      "inputs": [
        {
          "internalType": "uint256",
          "name": "_fee",
          "type": "uint256"
        }
      ],
      "name": "setHouseFee",
      "outputs": [],
      "stateMutability": "nonpayable",
      "type": "function"
    },
    {
      "inputs": [],
      "name": "spin",
      "outputs": [
        {
          "internalType": "uint256",
          "name": "",
          "type": "uint256"
        }
      ],
      "stateMutability": "payable",
      "type": "function"
    },
    {
      "inputs": [
        {
          "internalType": "uint256",
          "name": "",
          "type": "uint256"
        }
      ],
      "name": "statuses",
      "outputs": [
        {
          "internalType": "uint256",
          "name": "stakedAmount",
          "type": "uint256"
        },
        {
          "internalType": "uint256",
          "name": "fees",
          "type": "uint256"
        },
        {
          "internalType": "uint256",
          "name": "randomWord",
          "type": "uint256"
        },
        {
          "internalType": "address",
          "name": "player",
          "type": "address"
        },
        {
          "internalType": "bool",
          "name": "didWin",
          "type": "bool"
        },
        {
          "internalType": "bool",
          "name": "fulfilled",
          "type": "bool"
        }
      ],
      "stateMutability": "view",
      "type": "function"
    },
    {
      "inputs": [
        {
          "internalType": "uint256",
          "name": "amount",
          "type": "uint256"
        }
      ],
      "name": "withdraw",
      "outputs": [],
      "stateMutability": "nonpayable",
      "type": "function"
    },
    {
      "stateMutability": "payable",
      "type": "receive"
    }
  ],
  "bytecode": "0x60806040526005805534801561001457600080fd5b50600160008190555033600460006101000a81548173ffffffffffffffffffffffffffffffffffffffff021916908373ffffffffffffffffffffffffffffffffffffffff1602179055506000600381905550611701806100756000396000f3fe60806040526004361061008a5760003560e01c80635c622a0e116100595780635c622a0e1461013e5780638da5cb5b1461017b578063bd097e21146101a6578063e67b932c146101b0578063f0acd7d5146101f257610091565b80630ed469b81461009657806312065fe0146100c15780632e1a7d4d146100ec5780635a09f2f41461011557610091565b3661009157005b600080fd5b3480156100a257600080fd5b506100ab610210565b6040516100b89190610d2a565b60405180910390f35b3480156100cd57600080fd5b506100d6610216565b6040516100e39190610d2a565b60405180910390f35b3480156100f857600080fd5b50610113600480360381019061010e9190610d76565b61021e565b005b34801561012157600080fd5b5061013c60048036038101906101379190610d76565b6103c3565b005b34801561014a57600080fd5b5061016560048036038101906101609190610d76565b6104a1565b6040516101729190610e89565b60405180910390f35b34801561018757600080fd5b50610190610578565b60405161019d9190610eb3565b60405180910390f35b6101ae61059e565b005b3480156101bc57600080fd5b506101d760048036038101906101d29190610d76565b610630565b6040516101e996959493929190610edd565b60405180910390f35b6101fa6106a6565b6040516102079190610d2a565b60405180910390f35b60055481565b600047905090565b600460009054906101000a900473ffffffffffffffffffffffffffffffffffffffff1673ffffffffffffffffffffffffffffffffffffffff163373ffffffffffffffffffffffffffffffffffffffff16146102ae576040517f08c379a00000000000000000000000000000000000000000000000000000000081526004016102a590610f9b565b60405180910390fd5b478111156102f1576040517f08c379a00000000000000000000000000000000000000000000000000000000081526004016102e890611007565b60405180910390fd5b6000600460009054906101000a900473ffffffffffffffffffffffffffffffffffffffff1673ffffffffffffffffffffffffffffffffffffffff168260405161033990611058565b60006040518083038185875af1925050503d8060008114610376576040519150601f19603f3d011682016040523d82523d6000602084013e61037b565b606091505b50509050806103bf576040517f08c379a00000000000000000000000000000000000000000000000000000000081526004016103b6906110b9565b60405180910390fd5b5050565b600460009054906101000a900473ffffffffffffffffffffffffffffffffffffffff1673ffffffffffffffffffffffffffffffffffffffff163373ffffffffffffffffffffffffffffffffffffffff1614610453576040517f08c379a000000000000000000000000000000000000000000000000000000000815260040161044a90610f9b565b60405180910390fd5b600a811115610497576040517f08c379a000000000000000000000000000000000000000000000000000000000815260040161048e90611125565b60405180910390fd5b8060058190555050565b6104a9610cc1565b600160008381526020019081526020016000206040518060c00160405290816000820154815260200160018201548152602001600282015481526020016003820160009054906101000a900473ffffffffffffffffffffffffffffffffffffffff1673ffffffffffffffffffffffffffffffffffffffff1673ffffffffffffffffffffffffffffffffffffffff1681526020016003820160149054906101000a900460ff161515151581526020016003820160159054906101000a900460ff1615151515815250509050919050565b600460009054906101000a900473ffffffffffffffffffffffffffffffffffffffff1681565b600460009054906101000a900473ffffffffffffffffffffffffffffffffffffffff1673ffffffffffffffffffffffffffffffffffffffff163373ffffffffffffffffffffffffffffffffffffffff161461062e576040517f08c379a000000000000000000000000000000000000000000000000000000000815260040161062590610f9b565b60405180910390fd5b565b60016020528060005260406000206000915090508060000154908060010154908060020154908060030160009054906101000a900473ffffffffffffffffffffffffffffffffffffffff16908060030160149054906101000a900460ff16908060030160159054906101000a900460ff16905086565b60006106b0610a9d565b600034116106f3576040517f08c379a00000000000000000000000000000000000000000000000000000000081526004016106ea90611191565b60405180910390fd5b600a47610700919061120f565b341115610742576040517f08c379a00000000000000000000000000000000000000000000000000000000081526004016107399061128c565b60405180910390fd5b600060026000815480929190610757906112ac565b919050559050600061077a600661076c610ae3565b610b3490919063ffffffff16565b905060008060006107a9606461079b60055434610b8c90919063ffffffff16565b610c0690919063ffffffff16565b905060008414806107ba5750600484145b156107dd57600192506107d68134610c5e90919063ffffffff16565b9150610847565b60018414806107ec5750600584145b15610822576001925061081b8161080d600234610b8c90919063ffffffff16565b610c5e90919063ffffffff16565b9150610846565b600384036108455760019250610842600234610c0690919063ffffffff16565b91505b5b5b6040518060c001604052803481526020018281526020018581526020013373ffffffffffffffffffffffffffffffffffffffff1681526020018415158152602001600115158152506001600087815260200190815260200160002060008201518160000155602082015181600101556040820151816002015560608201518160030160006101000a81548173ffffffffffffffffffffffffffffffffffffffff021916908373ffffffffffffffffffffffffffffffffffffffff16021790555060808201518160030160146101000a81548160ff02191690831515021790555060a08201518160030160156101000a81548160ff0219169083151502179055509050503373ffffffffffffffffffffffffffffffffffffffff16857f9afa60be6b9c38243e86a9e9931289238a3c8a844884998d2a5c9be644204eb060405160405180910390a3847f4e01f9dac5157bf487046ddcb8a1d19a6d1c05f1ca18977746a75c6a5ec1dcac8486856040516109c2939291906112f4565b60405180910390a28280156109d75750600082115b15610a8a5760003373ffffffffffffffffffffffffffffffffffffffff1683604051610a0290611058565b60006040518083038185875af1925050503d8060008114610a3f576040519150601f19603f3d011682016040523d82523d6000602084013e610a44565b606091505b5050905080610a88576040517f08c379a0000000000000000000000000000000000000000000000000000000008152600401610a7f90611377565b60405180910390fd5b505b8495505050505050610a9a610cb7565b90565b600260005403610ad9576040517f3ee5aeb500000000000000000000000000000000000000000000000000000000815260040160405180910390fd5b6002600081905550565b600060036000815480929190610af8906112ac565b9190505550424433600354604051602001610b169493929190611400565b6040516020818303038152906040528051906020012060001c905090565b6000808211610b78576040517f08c379a0000000000000000000000000000000000000000000000000000000008152600401610b6f9061149a565b60405180910390fd5b8183610b8491906114ba565b905092915050565b6000808303610b9e5760009050610c00565b60008284610bac91906114eb565b9050828482610bbb919061120f565b14610bfb576040517f08c379a0000000000000000000000000000000000000000000000000000000008152600401610bf29061159f565b60405180910390fd5b809150505b92915050565b6000808211610c4a576040517f08c379a0000000000000000000000000000000000000000000000000000000008152600401610c419061160b565b60405180910390fd5b8183610c56919061120f565b905092915050565b600082821115610ca3576040517f08c379a0000000000000000000000000000000000000000000000000000000008152600401610c9a90611677565b60405180910390fd5b8183610caf9190611697565b905092915050565b6001600081905550565b6040518060c00160405280600081526020016000815260200160008152602001600073ffffffffffffffffffffffffffffffffffffffff1681526020016000151581526020016000151581525090565b6000819050919050565b610d2481610d11565b82525050565b6000602082019050610d3f6000830184610d1b565b92915050565b600080fd5b610d5381610d11565b8114610d5e57600080fd5b50565b600081359050610d7081610d4a565b92915050565b600060208284031215610d8c57610d8b610d45565b5b6000610d9a84828501610d61565b91505092915050565b610dac81610d11565b82525050565b600073ffffffffffffffffffffffffffffffffffffffff82169050919050565b6000610ddd82610db2565b9050919050565b610ded81610dd2565b82525050565b60008115159050919050565b610e0881610df3565b82525050565b60c082016000820151610e246000850182610da3565b506020820151610e376020850182610da3565b506040820151610e4a6040850182610da3565b506060820151610e5d6060850182610de4565b506080820151610e706080850182610dff565b5060a0820151610e8360a0850182610dff565b50505050565b600060c082019050610e9e6000830184610e0e565b92915050565b610ead81610dd2565b82525050565b6000602082019050610ec86000830184610ea4565b92915050565b610ed781610df3565b82525050565b600060c082019050610ef26000830189610d1b565b610eff6020830188610d1b565b610f0c6040830187610d1b565b610f196060830186610ea4565b610f266080830185610ece565b610f3360a0830184610ece565b979650505050505050565b600082825260208201905092915050565b7f4f6e6c79206f776e657200000000000000000000000000000000000000000000600082015250565b6000610f85600a83610f3e565b9150610f9082610f4f565b602082019050919050565b60006020820190508181036000830152610fb481610f78565b9050919050565b7f496e73756666696369656e742062616c616e6365000000000000000000000000600082015250565b6000610ff1601483610f3e565b9150610ffc82610fbb565b602082019050919050565b6000602082019050818103600083015261102081610fe4565b9050919050565b600081905092915050565b50565b6000611042600083611027565b915061104d82611032565b600082019050919050565b600061106382611035565b9150819050919050565b7f5769746864726177616c206661696c6564000000000000000000000000000000600082015250565b60006110a3601183610f3e565b91506110ae8261106d565b602082019050919050565b600060208201905081810360008301526110d281611096565b9050919050565b7f46656520746f6f20686967680000000000000000000000000000000000000000600082015250565b600061110f600c83610f3e565b915061111a826110d9565b602082019050919050565b6000602082019050818103600083015261113e81611102565b9050919050565b7f4d7573742073656e642042544320746f20706c61790000000000000000000000600082015250565b600061117b601583610f3e565b915061118682611145565b602082019050919050565b600060208201905081810360008301526111aa8161116e565b9050919050565b7f4e487b7100000000000000000000000000000000000000000000000000000000600052601260045260246000fd5b7f4e487b7100000000000000000000000000000000000000000000000000000000600052601160045260246000fd5b600061121a82610d11565b915061122583610d11565b925082611235576112346111b1565b5b828204905092915050565b7f42657420746f6f20686967680000000000000000000000000000000000000000600082015250565b6000611276600c83610f3e565b915061128182611240565b602082019050919050565b600060208201905081810360008301526112a581611269565b9050919050565b60006112b782610d11565b91507fffffffffffffffffffffffffffffffffffffffffffffffffffffffffffffffff82036112e9576112e86111e0565b5b600182019050919050565b60006060820190506113096000830186610ece565b6113166020830185610d1b565b6113236040830184610d1b565b949350505050565b7f5472616e73666572206661696c65640000000000000000000000000000000000600082015250565b6000611361600f83610f3e565b915061136c8261132b565b602082019050919050565b6000602082019050818103600083015261139081611354565b9050919050565b6000819050919050565b6113b26113ad82610d11565b611397565b82525050565b60008160601b9050919050565b60006113d0826113b8565b9050919050565b60006113e2826113c5565b9050919050565b6113fa6113f582610dd2565b6113d7565b82525050565b600061140c82876113a1565b60208201915061141c82866113a1565b60208201915061142c82856113e9565b60148201915061143c82846113a1565b60208201915081905095945050505050565b7f536166654d6174683a206d6f64756c6f206279207a65726f0000000000000000600082015250565b6000611484601883610f3e565b915061148f8261144e565b602082019050919050565b600060208201905081810360008301526114b381611477565b9050919050565b60006114c582610d11565b91506114d083610d11565b9250826114e0576114df6111b1565b5b828206905092915050565b60006114f682610d11565b915061150183610d11565b925082820261150f81610d11565b91508282048414831517611526576115256111e0565b5b5092915050565b7f536166654d6174683a206d756c7469706c69636174696f6e206f766572666c6f60008201527f7700000000000000000000000000000000000000000000000000000000000000602082015250565b6000611589602183610f3e565b91506115948261152d565b604082019050919050565b600060208201905081810360008301526115b88161157c565b9050919050565b7f536166654d6174683a206469766973696f6e206279207a65726f000000000000600082015250565b60006115f5601a83610f3e565b9150611600826115bf565b602082019050919050565b60006020820190508181036000830152611624816115e8565b9050919050565b7f536166654d6174683a207375627472616374696f6e206f766572666c6f770000600082015250565b6000611661601e83610f3e565b915061166c8261162b565b602082019050919050565b6000602082019050818103600083015261169081611654565b9050919050565b60006116a282610d11565b91506116ad83610d11565b92508282039050818111156116c5576116c46111e0565b5b9291505056fea264697066735822122070c9a2fc3dd29a4469171ce2aefa9aa11b755e5b3d9f9c8f00a9e38ae0a6f6b764736f6c63430008140033",
  "linkReferences": {},
  "deployedLinkReferences": {}
}