{
  "_format": "hh-sol-artifact-1",
  "contractName": "Wheel",
  "sourceName": "contracts/Wheel.sol",
  "abi": [
    {
      "inputs": [
        {
          "internalType": "address",
          "name": "_musdAddress",
          "type": "address"
        }
      ],
      "stateMutability": "nonpayable",
      "type": "constructor"
    },
    {
      "inputs": [],
      "name": "ReentrancyGuardReentrantCall",
      "type": "error"
    },
    {
      "anonymous": false,
      "inputs": [
        {
          "indexed": true,
          "internalType": "uint256",
          "name": "requestId",
          "type": "uint256"
        },
        {
          "indexed": true,
          "internalType": "address",
          "name": "player",
          "type": "address"
        }
      ],
      "name": "WheelRequest",
      "type": "event"
    },
    {
      "anonymous": false,
      "inputs": [
        {
          "indexed": true,
          "internalType": "uint256",
          "name": "requestId",
          "type": "uint256"
        },
        {
          "indexed": false,
          "internalType": "bool",
          "name": "didWin",
          "type": "bool"
        },
        {
          "indexed": false,
          "internalType": "uint256",
          "name": "wheelNumber",
          "type": "uint256"
        },
        {
          "indexed": false,
          "internalType": "uint256",
          "name": "payout",
          "type": "uint256"
        }
      ],
      "name": "WheelResult",
      "type": "event"
    },
    {
      "inputs": [
        {
          "internalType": "uint256",
          "name": "amount",
          "type": "uint256"
        }
      ],
      "name": "fundContract",
      "outputs": [],
      "stateMutability": "nonpayable",
      "type": "function"
    },
    {
      "inputs": [],
      "name": "getMUSDAddress",
      "outputs": [
        {
          "internalType": "address",
          "name": "",
          "type": "address"
        }
      ],
      "stateMutability": "view",
      "type": "function"
    },
    {
      "inputs": [],
      "name": "getMUSDBalance",
      "outputs": [
        {
          "internalType": "uint256",
          "name": "",
          "type": "uint256"
        }
      ],
      "stateMutability": "view",
      "type": "function"
    },
    {
      "inputs": [
        {
          "internalType": "uint256",
          "name": "requestId",
          "type": "uint256"
        }
      ],
      "name": "getStatus",
      "outputs": [
        {
          "components": [
            {
              "internalType": "uint256",
              "name": "stakedAmount",
              "type": "uint256"
            },
            {
              "internalType": "uint256",
              "name": "fees",
              "type": "uint256"
            },
            {
              "internalType": "uint256",
              "name": "randomWord",
              "type": "uint256"
            },
            {
              "internalType": "address",
              "name": "player",
              "type": "address"
            },
            {
              "internalType": "bool",
              "name": "didWin",
              "type": "bool"
            },
            {
              "internalType": "bool",
              "name": "fulfilled",
              "type": "bool"
            }
          ],
          "internalType": "struct Wheel.WheelStatus",
          "name": "",
          "type": "tuple"
        }
      ],
      "stateMutability": "view",
      "type": "function"
    },
    {
      "inputs": [],
      "name": "houseFee",
      "outputs": [
        {
          "internalType": "uint256",
          "name": "",
          "type": "uint256"
        }
      ],
      "stateMutability": "view",
      "type": "function"
    },
    {
      "inputs": [],
      "name": "musd",
      "outputs": [
        {
          "internalType": "contract IERC20",
          "name": "",
          "type": "address"
        }
      ],
      "stateMutability": "view",
      "type": "function"
    },
    {
      "inputs": [],
      "name": "owner",
      "outputs": [
        {
          "internalType": "address",
          "name": "",
          "type": "address"
        }
      ],
      "stateMutability": "view",
      "type": "function"
    },
    {
      "inputs": [],
      "name": "requestCounter",
      "outputs": [
        {
          "internalType": "uint256",
          "name": "",
          "type": "uint256"
        }
      ],
      "stateMutability": "view",
      "type": "function"
    },
    {
      "inputs": [
        {
          "internalType": "uint256",
          "name": "_fee",
          "type": "uint256"
        }
      ],
      "name": "setHouseFee",
      "outputs": [],
      "stateMutability": "nonpayable",
      "type": "function"
    },
    {
      "inputs": [
        {
          "internalType": "uint256",
          "name": "betAmount",
          "type": "uint256"
        }
      ],
      "name": "spin",
      "outputs": [
        {
          "internalType": "uint256",
          "name": "",
          "type": "uint256"
        }
      ],
      "stateMutability": "nonpayable",
      "type": "function"
    },
    {
      "inputs": [
        {
          "internalType": "uint256",
          "name": "",
          "type": "uint256"
        }
      ],
      "name": "statuses",
      "outputs": [
        {
          "internalType": "uint256",
          "name": "stakedAmount",
          "type": "uint256"
        },
        {
          "internalType": "uint256",
          "name": "fees",
          "type": "uint256"
        },
        {
          "internalType": "uint256",
          "name": "randomWord",
          "type": "uint256"
        },
        {
          "internalType": "address",
          "name": "player",
          "type": "address"
        },
        {
          "internalType": "bool",
          "name": "didWin",
          "type": "bool"
        },
        {
          "internalType": "bool",
          "name": "fulfilled",
          "type": "bool"
        }
      ],
      "stateMutability": "view",
      "type": "function"
    },
    {
      "inputs": [
        {
          "internalType": "uint256",
          "name": "amount",
          "type": "uint256"
        }
      ],
      "name": "withdraw",
      "outputs": [],
      "stateMutability": "nonpayable",
      "type": "function"
    }
  ],
  "bytecode": "0x6080604052600580553480156200001557600080fd5b5060405162001f3338038062001f3383398181016040528101906200003b919062000146565b600160008190555033600460006101000a81548173ffffffffffffffffffffffffffffffffffffffff021916908373ffffffffffffffffffffffffffffffffffffffff1602179055506000600381905550600060028190555080600660006101000a81548173ffffffffffffffffffffffffffffffffffffffff021916908373ffffffffffffffffffffffffffffffffffffffff1602179055505062000178565b600080fd5b600073ffffffffffffffffffffffffffffffffffffffff82169050919050565b60006200010e82620000e1565b9050919050565b620001208162000101565b81146200012c57600080fd5b50565b600081519050620001408162000115565b92915050565b6000602082840312156200015f576200015e620000dc565b5b60006200016f848285016200012f565b91505092915050565b611dab80620001886000396000f3fe608060405234801561001057600080fd5b50600436106100b45760003560e01c80638da5cb5b116100715780638da5cb5b14610179578063973a814e14610197578063a5b6ea8f146101b5578063cab666d0146101e5578063d8b802a614610203578063e67b932c14610221576100b4565b80630ed469b8146100b95780632e1a7d4d146100d75780633519a2f8146100f357806348698d821461010f5780635a09f2f41461012d5780635c622a0e14610149575b600080fd5b6100c1610256565b6040516100ce919061110b565b60405180910390f35b6100f160048036038101906100ec9190611157565b61025c565b005b61010d60048036038101906101089190611157565b61043a565b005b6101176105ae565b60405161012491906111c5565b60405180910390f35b61014760048036038101906101429190611157565b6105d8565b005b610163600480360381019061015e9190611157565b6106b6565b6040516101709190611294565b60405180910390f35b61018161078d565b60405161018e91906111c5565b60405180910390f35b61019f6107b3565b6040516101ac919061110b565b60405180910390f35b6101cf60048036038101906101ca9190611157565b6107b9565b6040516101dc919061110b565b60405180910390f35b6101ed610cdb565b6040516101fa919061130e565b60405180910390f35b61020b610d01565b604051610218919061110b565b60405180910390f35b61023b60048036038101906102369190611157565b610da4565b60405161024d96959493929190611338565b60405180910390f35b60055481565b600460009054906101000a900473ffffffffffffffffffffffffffffffffffffffff1673ffffffffffffffffffffffffffffffffffffffff163373ffffffffffffffffffffffffffffffffffffffff16146102ec576040517f08c379a00000000000000000000000000000000000000000000000000000000081526004016102e3906113f6565b60405180910390fd5b6102f4610d01565b811115610336576040517f08c379a000000000000000000000000000000000000000000000000000000000815260040161032d90611462565b60405180910390fd5b600660009054906101000a900473ffffffffffffffffffffffffffffffffffffffff1673ffffffffffffffffffffffffffffffffffffffff1663a9059cbb600460009054906101000a900473ffffffffffffffffffffffffffffffffffffffff16836040518363ffffffff1660e01b81526004016103b5929190611482565b6020604051808303816000875af11580156103d4573d6000803e3d6000fd5b505050506040513d601f19601f820116820180604052508101906103f891906114d7565b610437576040517f08c379a000000000000000000000000000000000000000000000000000000000815260040161042e90611550565b60405180910390fd5b50565b600460009054906101000a900473ffffffffffffffffffffffffffffffffffffffff1673ffffffffffffffffffffffffffffffffffffffff163373ffffffffffffffffffffffffffffffffffffffff16146104ca576040517f08c379a00000000000000000000000000000000000000000000000000000000081526004016104c1906113f6565b60405180910390fd5b600660009054906101000a900473ffffffffffffffffffffffffffffffffffffffff1673ffffffffffffffffffffffffffffffffffffffff166323b872dd3330846040518463ffffffff1660e01b815260040161052993929190611570565b6020604051808303816000875af1158015610548573d6000803e3d6000fd5b505050506040513d601f19601f8201168201806040525081019061056c91906114d7565b6105ab576040517f08c379a00000000000000000000000000000000000000000000000000000000081526004016105a2906115f3565b60405180910390fd5b50565b6000600660009054906101000a900473ffffffffffffffffffffffffffffffffffffffff16905090565b600460009054906101000a900473ffffffffffffffffffffffffffffffffffffffff1673ffffffffffffffffffffffffffffffffffffffff163373ffffffffffffffffffffffffffffffffffffffff1614610668576040517f08c379a000000000000000000000000000000000000000000000000000000000815260040161065f906113f6565b60405180910390fd5b600a8111156106ac576040517f08c379a00000000000000000000000000000000000000000000000000000000081526004016106a39061165f565b60405180910390fd5b8060058190555050565b6106be6110a2565b600160008381526020019081526020016000206040518060c00160405290816000820154815260200160018201548152602001600282015481526020016003820160009054906101000a900473ffffffffffffffffffffffffffffffffffffffff1673ffffffffffffffffffffffffffffffffffffffff1673ffffffffffffffffffffffffffffffffffffffff1681526020016003820160149054906101000a900460ff161515151581526020016003820160159054906101000a900460ff1615151515815250509050919050565b600460009054906101000a900473ffffffffffffffffffffffffffffffffffffffff1681565b60025481565b60006107c3610e1a565b60008211610806576040517f08c379a00000000000000000000000000000000000000000000000000000000081526004016107fd906116cb565b60405180910390fd5b610821600a610813610d01565b610e6090919063ffffffff16565b821115610863576040517f08c379a000000000000000000000000000000000000000000000000000000000815260040161085a90611737565b60405180910390fd5b600660009054906101000a900473ffffffffffffffffffffffffffffffffffffffff1673ffffffffffffffffffffffffffffffffffffffff166323b872dd3330856040518463ffffffff1660e01b81526004016108c293929190611570565b6020604051808303816000875af11580156108e1573d6000803e3d6000fd5b505050506040513d601f19601f8201168201806040525081019061090591906114d7565b610944576040517f08c379a000000000000000000000000000000000000000000000000000000000815260040161093b906117a3565b60405180910390fd5b600060025490506109616001600254610eb890919063ffffffff16565b60028190555060006109846006610976610f16565b610f6d90919063ffffffff16565b905060008060006109b360646109a56005548a610fc590919063ffffffff16565b610e6090919063ffffffff16565b905060008414806109c45750600484145b156109e757600192506109e0818861103f90919063ffffffff16565b9150610a51565b60018414806109f65750600584145b15610a2c5760019250610a2581610a1760028a610fc590919063ffffffff16565b61103f90919063ffffffff16565b9150610a50565b60038403610a4f5760019250610a4c600288610e6090919063ffffffff16565b91505b5b5b6040518060c001604052808881526020018281526020018581526020013373ffffffffffffffffffffffffffffffffffffffff1681526020018415158152602001600115158152506001600087815260200190815260200160002060008201518160000155602082015181600101556040820151816002015560608201518160030160006101000a81548173ffffffffffffffffffffffffffffffffffffffff021916908373ffffffffffffffffffffffffffffffffffffffff16021790555060808201518160030160146101000a81548160ff02191690831515021790555060a08201518160030160156101000a81548160ff0219169083151502179055509050503373ffffffffffffffffffffffffffffffffffffffff16857f9afa60be6b9c38243e86a9e9931289238a3c8a844884998d2a5c9be644204eb060405160405180910390a3847f4e01f9dac5157bf487046ddcb8a1d19a6d1c05f1ca18977746a75c6a5ec1dcac848685604051610bcc939291906117c3565b60405180910390a2828015610be15750600082115b15610cc657600660009054906101000a900473ffffffffffffffffffffffffffffffffffffffff1673ffffffffffffffffffffffffffffffffffffffff1663a9059cbb33846040518363ffffffff1660e01b8152600401610c43929190611482565b6020604051808303816000875af1158015610c62573d6000803e3d6000fd5b505050506040513d601f19601f82011682018060405250810190610c8691906114d7565b610cc5576040517f08c379a0000000000000000000000000000000000000000000000000000000008152600401610cbc90611846565b60405180910390fd5b5b8495505050505050610cd6611098565b919050565b600660009054906101000a900473ffffffffffffffffffffffffffffffffffffffff1681565b6000600660009054906101000a900473ffffffffffffffffffffffffffffffffffffffff1673ffffffffffffffffffffffffffffffffffffffff166370a08231306040518263ffffffff1660e01b8152600401610d5e91906111c5565b602060405180830381865afa158015610d7b573d6000803e3d6000fd5b505050506040513d601f19601f82011682018060405250810190610d9f919061187b565b905090565b60016020528060005260406000206000915090508060000154908060010154908060020154908060030160009054906101000a900473ffffffffffffffffffffffffffffffffffffffff16908060030160149054906101000a900460ff16908060030160159054906101000a900460ff16905086565b600260005403610e56576040517f3ee5aeb500000000000000000000000000000000000000000000000000000000815260040160405180910390fd5b6002600081905550565b6000808211610ea4576040517f08c379a0000000000000000000000000000000000000000000000000000000008152600401610e9b906118f4565b60405180910390fd5b8183610eb09190611972565b905092915050565b6000808284610ec791906119a3565b905083811015610f0c576040517f08c379a0000000000000000000000000000000000000000000000000000000008152600401610f0390611a23565b60405180910390fd5b8091505092915050565b600060036000815480929190610f2b90611a43565b919050555042444333600354600254604051602001610f4f96959493929190611af4565b6040516020818303038152906040528051906020012060001c905090565b6000808211610fb1576040517f08c379a0000000000000000000000000000000000000000000000000000000008152600401610fa890611bb0565b60405180910390fd5b8183610fbd9190611bd0565b905092915050565b6000808303610fd75760009050611039565b60008284610fe59190611c01565b9050828482610ff49190611972565b14611034576040517f08c379a000000000000000000000000000000000000000000000000000000000815260040161102b90611cb5565b60405180910390fd5b809150505b92915050565b600082821115611084576040517f08c379a000000000000000000000000000000000000000000000000000000000815260040161107b90611d21565b60405180910390fd5b81836110909190611d41565b905092915050565b6001600081905550565b6040518060c00160405280600081526020016000815260200160008152602001600073ffffffffffffffffffffffffffffffffffffffff1681526020016000151581526020016000151581525090565b6000819050919050565b611105816110f2565b82525050565b600060208201905061112060008301846110fc565b92915050565b600080fd5b611134816110f2565b811461113f57600080fd5b50565b6000813590506111518161112b565b92915050565b60006020828403121561116d5761116c611126565b5b600061117b84828501611142565b91505092915050565b600073ffffffffffffffffffffffffffffffffffffffff82169050919050565b60006111af82611184565b9050919050565b6111bf816111a4565b82525050565b60006020820190506111da60008301846111b6565b92915050565b6111e9816110f2565b82525050565b6111f8816111a4565b82525050565b60008115159050919050565b611213816111fe565b82525050565b60c08201600082015161122f60008501826111e0565b50602082015161124260208501826111e0565b50604082015161125560408501826111e0565b50606082015161126860608501826111ef565b50608082015161127b608085018261120a565b5060a082015161128e60a085018261120a565b50505050565b600060c0820190506112a96000830184611219565b92915050565b6000819050919050565b60006112d46112cf6112ca84611184565b6112af565b611184565b9050919050565b60006112e6826112b9565b9050919050565b60006112f8826112db565b9050919050565b611308816112ed565b82525050565b600060208201905061132360008301846112ff565b92915050565b611332816111fe565b82525050565b600060c08201905061134d60008301896110fc565b61135a60208301886110fc565b61136760408301876110fc565b61137460608301866111b6565b6113816080830185611329565b61138e60a0830184611329565b979650505050505050565b600082825260208201905092915050565b7f4f6e6c79206f776e657200000000000000000000000000000000000000000000600082015250565b60006113e0600a83611399565b91506113eb826113aa565b602082019050919050565b6000602082019050818103600083015261140f816113d3565b9050919050565b7f496e73756666696369656e742062616c616e6365000000000000000000000000600082015250565b600061144c601483611399565b915061145782611416565b602082019050919050565b6000602082019050818103600083015261147b8161143f565b9050919050565b600060408201905061149760008301856111b6565b6114a460208301846110fc565b9392505050565b6114b4816111fe565b81146114bf57600080fd5b50565b6000815190506114d1816114ab565b92915050565b6000602082840312156114ed576114ec611126565b5b60006114fb848285016114c2565b91505092915050565b7f5769746864726177616c206661696c6564000000000000000000000000000000600082015250565b600061153a601183611399565b915061154582611504565b602082019050919050565b600060208201905081810360008301526115698161152d565b9050919050565b600060608201905061158560008301866111b6565b61159260208301856111b6565b61159f60408301846110fc565b949350505050565b7f46756e64696e67206661696c6564000000000000000000000000000000000000600082015250565b60006115dd600e83611399565b91506115e8826115a7565b602082019050919050565b6000602082019050818103600083015261160c816115d0565b9050919050565b7f46656520746f6f20686967680000000000000000000000000000000000000000600082015250565b6000611649600c83611399565b915061165482611613565b602082019050919050565b600060208201905081810360008301526116788161163c565b9050919050565b7f4d7573742062657420736f6d65204d5553440000000000000000000000000000600082015250565b60006116b5601283611399565b91506116c08261167f565b602082019050919050565b600060208201905081810360008301526116e4816116a8565b9050919050565b7f42657420746f6f20686967680000000000000000000000000000000000000000600082015250565b6000611721600c83611399565b915061172c826116eb565b602082019050919050565b6000602082019050818103600083015261175081611714565b9050919050565b7f4d555344207472616e73666572206661696c6564000000000000000000000000600082015250565b600061178d601483611399565b915061179882611757565b602082019050919050565b600060208201905081810360008301526117bc81611780565b9050919050565b60006060820190506117d86000830186611329565b6117e560208301856110fc565b6117f260408301846110fc565b949350505050565b7f5061796f7574206661696c656400000000000000000000000000000000000000600082015250565b6000611830600d83611399565b915061183b826117fa565b602082019050919050565b6000602082019050818103600083015261185f81611823565b9050919050565b6000815190506118758161112b565b92915050565b60006020828403121561189157611890611126565b5b600061189f84828501611866565b91505092915050565b7f536166654d6174683a206469766973696f6e206279207a65726f000000000000600082015250565b60006118de601a83611399565b91506118e9826118a8565b602082019050919050565b6000602082019050818103600083015261190d816118d1565b9050919050565b7f4e487b7100000000000000000000000000000000000000000000000000000000600052601260045260246000fd5b7f4e487b7100000000000000000000000000000000000000000000000000000000600052601160045260246000fd5b600061197d826110f2565b9150611988836110f2565b92508261199857611997611914565b5b828204905092915050565b60006119ae826110f2565b91506119b9836110f2565b92508282019050808211156119d1576119d0611943565b5b92915050565b7f536166654d6174683a206164646974696f6e206f766572666c6f770000000000600082015250565b6000611a0d601b83611399565b9150611a18826119d7565b602082019050919050565b60006020820190508181036000830152611a3c81611a00565b9050919050565b6000611a4e826110f2565b91507fffffffffffffffffffffffffffffffffffffffffffffffffffffffffffffffff8203611a8057611a7f611943565b5b600182019050919050565b6000819050919050565b611aa6611aa1826110f2565b611a8b565b82525050565b60008160601b9050919050565b6000611ac482611aac565b9050919050565b6000611ad682611ab9565b9050919050565b611aee611ae9826111a4565b611acb565b82525050565b6000611b008289611a95565b602082019150611b108288611a95565b602082019150611b208287611a95565b602082019150611b308286611add565b601482019150611b408285611a95565b602082019150611b508284611a95565b602082019150819050979650505050505050565b7f536166654d6174683a206d6f64756c6f206279207a65726f0000000000000000600082015250565b6000611b9a601883611399565b9150611ba582611b64565b602082019050919050565b60006020820190508181036000830152611bc981611b8d565b9050919050565b6000611bdb826110f2565b9150611be6836110f2565b925082611bf657611bf5611914565b5b828206905092915050565b6000611c0c826110f2565b9150611c17836110f2565b9250828202611c25816110f2565b91508282048414831517611c3c57611c3b611943565b5b5092915050565b7f536166654d6174683a206d756c7469706c69636174696f6e206f766572666c6f60008201527f7700000000000000000000000000000000000000000000000000000000000000602082015250565b6000611c9f602183611399565b9150611caa82611c43565b604082019050919050565b60006020820190508181036000830152611cce81611c92565b9050919050565b7f536166654d6174683a207375627472616374696f6e206f766572666c6f770000600082015250565b6000611d0b601e83611399565b9150611d1682611cd5565b602082019050919050565b60006020820190508181036000830152611d3a81611cfe565b9050919050565b6000611d4c826110f2565b9150611d57836110f2565b9250828203905081811115611d6f57611d6e611943565b5b9291505056fea264697066735822122078cdf08e125ea18a728a3e4282cec2d937d64d4b09e1c16d0c271e4d20d8e79564736f6c63430008140033",
  "linkReferences": {},
  "deployedLinkReferences": {}
}