{
  "_format": "hh-sol-artifact-1",
  "contractName": "Coin",
  "sourceName": "contracts/CoinFlip.sol",
  "abi": [
    {
      "inputs": [
        {
          "internalType": "address",
          "name": "_musdAddress",
          "type": "address"
        }
      ],
      "stateMutability": "nonpayable",
      "type": "constructor"
    },
    {
      "inputs": [],
      "name": "ReentrancyGuardReentrantCall",
      "type": "error"
    },
    {
      "anonymous": false,
      "inputs": [
        {
          "indexed": true,
          "internalType": "uint256",
          "name": "requestId",
          "type": "uint256"
        },
        {
          "indexed": true,
          "internalType": "address",
          "name": "player",
          "type": "address"
        }
      ],
      "name": "CoinFlipRequest",
      "type": "event"
    },
    {
      "anonymous": false,
      "inputs": [
        {
          "indexed": true,
          "internalType": "uint256",
          "name": "requestId",
          "type": "uint256"
        },
        {
          "indexed": false,
          "internalType": "bool",
          "name": "didWin",
          "type": "bool"
        },
        {
          "indexed": false,
          "internalType": "enum Coin.CoinFlipSelection",
          "name": "result",
          "type": "uint8"
        }
      ],
      "name": "CoinFlipResult",
      "type": "event"
    },
    {
      "inputs": [
        {
          "internalType": "enum Coin.CoinFlipSelection",
          "name": "choice",
          "type": "uint8"
        },
        {
          "internalType": "uint256",
          "name": "betAmount",
          "type": "uint256"
        }
      ],
      "name": "flip",
      "outputs": [
        {
          "internalType": "uint256",
          "name": "",
          "type": "uint256"
        }
      ],
      "stateMutability": "nonpayable",
      "type": "function"
    },
    {
      "inputs": [
        {
          "internalType": "uint256",
          "name": "amount",
          "type": "uint256"
        }
      ],
      "name": "fundContract",
      "outputs": [],
      "stateMutability": "nonpayable",
      "type": "function"
    },
    {
      "inputs": [],
      "name": "getMUSDAddress",
      "outputs": [
        {
          "internalType": "address",
          "name": "",
          "type": "address"
        }
      ],
      "stateMutability": "view",
      "type": "function"
    },
    {
      "inputs": [],
      "name": "getMUSDBalance",
      "outputs": [
        {
          "internalType": "uint256",
          "name": "",
          "type": "uint256"
        }
      ],
      "stateMutability": "view",
      "type": "function"
    },
    {
      "inputs": [
        {
          "internalType": "uint256",
          "name": "requestId",
          "type": "uint256"
        }
      ],
      "name": "getStatus",
      "outputs": [
        {
          "components": [
            {
              "internalType": "uint256",
              "name": "stakedAmount",
              "type": "uint256"
            },
            {
              "internalType": "uint256",
              "name": "fees",
              "type": "uint256"
            },
            {
              "internalType": "uint256",
              "name": "randomWord",
              "type": "uint256"
            },
            {
              "internalType": "address",
              "name": "player",
              "type": "address"
            },
            {
              "internalType": "bool",
              "name": "didWin",
              "type": "bool"
            },
            {
              "internalType": "bool",
              "name": "fulfilled",
              "type": "bool"
            },
            {
              "internalType": "enum Coin.CoinFlipSelection",
              "name": "choice",
              "type": "uint8"
            }
          ],
          "internalType": "struct Coin.CoinFlipStatus",
          "name": "",
          "type": "tuple"
        }
      ],
      "stateMutability": "view",
      "type": "function"
    },
    {
      "inputs": [],
      "name": "houseFee",
      "outputs": [
        {
          "internalType": "uint256",
          "name": "",
          "type": "uint256"
        }
      ],
      "stateMutability": "view",
      "type": "function"
    },
    {
      "inputs": [],
      "name": "musd",
      "outputs": [
        {
          "internalType": "contract IERC20",
          "name": "",
          "type": "address"
        }
      ],
      "stateMutability": "view",
      "type": "function"
    },
    {
      "inputs": [],
      "name": "owner",
      "outputs": [
        {
          "internalType": "address",
          "name": "",
          "type": "address"
        }
      ],
      "stateMutability": "view",
      "type": "function"
    },
    {
      "inputs": [],
      "name": "requestCounter",
      "outputs": [
        {
          "internalType": "uint256",
          "name": "",
          "type": "uint256"
        }
      ],
      "stateMutability": "view",
      "type": "function"
    },
    {
      "inputs": [
        {
          "internalType": "uint256",
          "name": "_fee",
          "type": "uint256"
        }
      ],
      "name": "setHouseFee",
      "outputs": [],
      "stateMutability": "nonpayable",
      "type": "function"
    },
    {
      "inputs": [
        {
          "internalType": "uint256",
          "name": "",
          "type": "uint256"
        }
      ],
      "name": "statuses",
      "outputs": [
        {
          "internalType": "uint256",
          "name": "stakedAmount",
          "type": "uint256"
        },
        {
          "internalType": "uint256",
          "name": "fees",
          "type": "uint256"
        },
        {
          "internalType": "uint256",
          "name": "randomWord",
          "type": "uint256"
        },
        {
          "internalType": "address",
          "name": "player",
          "type": "address"
        },
        {
          "internalType": "bool",
          "name": "didWin",
          "type": "bool"
        },
        {
          "internalType": "bool",
          "name": "fulfilled",
          "type": "bool"
        },
        {
          "internalType": "enum Coin.CoinFlipSelection",
          "name": "choice",
          "type": "uint8"
        }
      ],
      "stateMutability": "view",
      "type": "function"
    },
    {
      "inputs": [
        {
          "internalType": "uint256",
          "name": "amount",
          "type": "uint256"
        }
      ],
      "name": "withdraw",
      "outputs": [],
      "stateMutability": "nonpayable",
      "type": "function"
    }
  ],
  "bytecode": "0x6080604052600580553480156200001557600080fd5b5060405162001fce38038062001fce83398181016040528101906200003b919062000146565b600160008190555033600460006101000a81548173ffffffffffffffffffffffffffffffffffffffff021916908373ffffffffffffffffffffffffffffffffffffffff1602179055506000600381905550600060028190555080600660006101000a81548173ffffffffffffffffffffffffffffffffffffffff021916908373ffffffffffffffffffffffffffffffffffffffff1602179055505062000178565b600080fd5b600073ffffffffffffffffffffffffffffffffffffffff82169050919050565b60006200010e82620000e1565b9050919050565b620001208162000101565b81146200012c57600080fd5b50565b600081519050620001408162000115565b92915050565b6000602082840312156200015f576200015e620000dc565b5b60006200016f848285016200012f565b91505092915050565b611e4680620001886000396000f3fe608060405234801561001057600080fd5b50600436106100b45760003560e01c80635c622a0e116100715780635c622a0e146101795780638da5cb5b146101a9578063973a814e146101c7578063cab666d0146101e5578063d8b802a614610203578063e67b932c14610221576100b4565b80630ed469b8146100b957806324e2b663146100d75780632e1a7d4d146101075780633519a2f81461012357806348698d821461013f5780635a09f2f41461015d575b600080fd5b6100c1610257565b6040516100ce9190611114565b60405180910390f35b6100f160048036038101906100ec9190611185565b61025d565b6040516100fe9190611114565b60405180910390f35b610121600480360381019061011c91906111c5565b610778565b005b61013d600480360381019061013891906111c5565b610956565b005b610147610aca565b6040516101549190611233565b60405180910390f35b610177600480360381019061017291906111c5565b610af4565b005b610193600480360381019061018e91906111c5565b610bd2565b6040516101a0919061138c565b60405180910390f35b6101b1610ce4565b6040516101be9190611233565b60405180910390f35b6101cf610d0a565b6040516101dc9190611114565b60405180910390f35b6101ed610d10565b6040516101fa9190611406565b60405180910390f35b61020b610d36565b6040516102189190611114565b60405180910390f35b61023b600480360381019061023691906111c5565b610dd9565b60405161024e979695949392919061143f565b60405180910390f35b60055481565b6000610267610e62565b600082116102aa576040517f08c379a00000000000000000000000000000000000000000000000000000000081526004016102a19061150b565b60405180910390fd5b6102c5600a6102b7610d36565b610ea890919063ffffffff16565b821115610307576040517f08c379a00000000000000000000000000000000000000000000000000000000081526004016102fe90611577565b60405180910390fd5b600660009054906101000a900473ffffffffffffffffffffffffffffffffffffffff1673ffffffffffffffffffffffffffffffffffffffff166323b872dd3330856040518463ffffffff1660e01b815260040161036693929190611597565b6020604051808303816000875af1158015610385573d6000803e3d6000fd5b505050506040513d601f19601f820116820180604052508101906103a991906115fa565b6103e8576040517f08c379a00000000000000000000000000000000000000000000000000000000081526004016103df90611673565b60405180910390fd5b600060025490506104056001600254610f0090919063ffffffff16565b6002819055506000610415610f5e565b905060008060028361042791906116c2565b0361043157600190505b600081600181111561044657610445611287565b5b87600181111561045957610458611287565b5b149050600061048660646104786005548a610fb590919063ffffffff16565b610ea890919063ffffffff16565b90506040518060e001604052808881526020018281526020018581526020013373ffffffffffffffffffffffffffffffffffffffff16815260200183151581526020016001151581526020018960018111156104e5576104e4611287565b5b8152506001600087815260200190815260200160002060008201518160000155602082015181600101556040820151816002015560608201518160030160006101000a81548173ffffffffffffffffffffffffffffffffffffffff021916908373ffffffffffffffffffffffffffffffffffffffff16021790555060808201518160030160146101000a81548160ff02191690831515021790555060a08201518160030160156101000a81548160ff02191690831515021790555060c08201518160030160166101000a81548160ff021916908360018111156105cb576105ca611287565b5b02179055509050503373ffffffffffffffffffffffffffffffffffffffff16857f9388f38462f1d32b96960210941f289e387426240887e8b27db87b298d83690060405160405180910390a3847f4157afa122b3d5600395f9aaa910540fb899c7a4ae000f67c658fb763d6fe57783856040516106499291906116f3565b60405180910390a2811561076257600061067f8261067160028b610fb590919063ffffffff16565b61102f90919063ffffffff16565b9050600660009054906101000a900473ffffffffffffffffffffffffffffffffffffffff1673ffffffffffffffffffffffffffffffffffffffff1663a9059cbb33836040518363ffffffff1660e01b81526004016106de92919061171c565b6020604051808303816000875af11580156106fd573d6000803e3d6000fd5b505050506040513d601f19601f8201168201806040525081019061072191906115fa565b610760576040517f08c379a000000000000000000000000000000000000000000000000000000000815260040161075790611791565b60405180910390fd5b505b8495505050505050610772611088565b92915050565b600460009054906101000a900473ffffffffffffffffffffffffffffffffffffffff1673ffffffffffffffffffffffffffffffffffffffff163373ffffffffffffffffffffffffffffffffffffffff1614610808576040517f08c379a00000000000000000000000000000000000000000000000000000000081526004016107ff906117fd565b60405180910390fd5b610810610d36565b811115610852576040517f08c379a000000000000000000000000000000000000000000000000000000000815260040161084990611869565b60405180910390fd5b600660009054906101000a900473ffffffffffffffffffffffffffffffffffffffff1673ffffffffffffffffffffffffffffffffffffffff1663a9059cbb600460009054906101000a900473ffffffffffffffffffffffffffffffffffffffff16836040518363ffffffff1660e01b81526004016108d192919061171c565b6020604051808303816000875af11580156108f0573d6000803e3d6000fd5b505050506040513d601f19601f8201168201806040525081019061091491906115fa565b610953576040517f08c379a000000000000000000000000000000000000000000000000000000000815260040161094a906118d5565b60405180910390fd5b50565b600460009054906101000a900473ffffffffffffffffffffffffffffffffffffffff1673ffffffffffffffffffffffffffffffffffffffff163373ffffffffffffffffffffffffffffffffffffffff16146109e6576040517f08c379a00000000000000000000000000000000000000000000000000000000081526004016109dd906117fd565b60405180910390fd5b600660009054906101000a900473ffffffffffffffffffffffffffffffffffffffff1673ffffffffffffffffffffffffffffffffffffffff166323b872dd3330846040518463ffffffff1660e01b8152600401610a4593929190611597565b6020604051808303816000875af1158015610a64573d6000803e3d6000fd5b505050506040513d601f19601f82011682018060405250810190610a8891906115fa565b610ac7576040517f08c379a0000000000000000000000000000000000000000000000000000000008152600401610abe90611941565b60405180910390fd5b50565b6000600660009054906101000a900473ffffffffffffffffffffffffffffffffffffffff16905090565b600460009054906101000a900473ffffffffffffffffffffffffffffffffffffffff1673ffffffffffffffffffffffffffffffffffffffff163373ffffffffffffffffffffffffffffffffffffffff1614610b84576040517f08c379a0000000000000000000000000000000000000000000000000000000008152600401610b7b906117fd565b60405180910390fd5b600a811115610bc8576040517f08c379a0000000000000000000000000000000000000000000000000000000008152600401610bbf906119ad565b60405180910390fd5b8060058190555050565b610bda611092565b600160008381526020019081526020016000206040518060e00160405290816000820154815260200160018201548152602001600282015481526020016003820160009054906101000a900473ffffffffffffffffffffffffffffffffffffffff1673ffffffffffffffffffffffffffffffffffffffff1673ffffffffffffffffffffffffffffffffffffffff1681526020016003820160149054906101000a900460ff161515151581526020016003820160159054906101000a900460ff161515151581526020016003820160169054906101000a900460ff166001811115610cc757610cc6611287565b5b6001811115610cd957610cd8611287565b5b815250509050919050565b600460009054906101000a900473ffffffffffffffffffffffffffffffffffffffff1681565b60025481565b600660009054906101000a900473ffffffffffffffffffffffffffffffffffffffff1681565b6000600660009054906101000a900473ffffffffffffffffffffffffffffffffffffffff1673ffffffffffffffffffffffffffffffffffffffff166370a08231306040518263ffffffff1660e01b8152600401610d939190611233565b602060405180830381865afa158015610db0573d6000803e3d6000fd5b505050506040513d601f19601f82011682018060405250810190610dd491906119e2565b905090565b60016020528060005260406000206000915090508060000154908060010154908060020154908060030160009054906101000a900473ffffffffffffffffffffffffffffffffffffffff16908060030160149054906101000a900460ff16908060030160159054906101000a900460ff16908060030160169054906101000a900460ff16905087565b600260005403610e9e576040517f3ee5aeb500000000000000000000000000000000000000000000000000000000815260040160405180910390fd5b6002600081905550565b6000808211610eec576040517f08c379a0000000000000000000000000000000000000000000000000000000008152600401610ee390611a5b565b60405180910390fd5b8183610ef89190611aaa565b905092915050565b6000808284610f0f9190611adb565b905083811015610f54576040517f08c379a0000000000000000000000000000000000000000000000000000000008152600401610f4b90611b5b565b60405180910390fd5b8091505092915050565b600060036000815480929190610f7390611b7b565b919050555042444333600354600254604051602001610f9796959493929190611c2c565b6040516020818303038152906040528051906020012060001c905090565b6000808303610fc75760009050611029565b60008284610fd59190611c9c565b9050828482610fe49190611aaa565b14611024576040517f08c379a000000000000000000000000000000000000000000000000000000000815260040161101b90611d50565b60405180910390fd5b809150505b92915050565b600082821115611074576040517f08c379a000000000000000000000000000000000000000000000000000000000815260040161106b90611dbc565b60405180910390fd5b81836110809190611ddc565b905092915050565b6001600081905550565b6040518060e00160405280600081526020016000815260200160008152602001600073ffffffffffffffffffffffffffffffffffffffff168152602001600015158152602001600015158152602001600060018111156110f5576110f4611287565b5b81525090565b6000819050919050565b61110e816110fb565b82525050565b60006020820190506111296000830184611105565b92915050565b600080fd5b6002811061114157600080fd5b50565b60008135905061115381611134565b92915050565b611162816110fb565b811461116d57600080fd5b50565b60008135905061117f81611159565b92915050565b6000806040838503121561119c5761119b61112f565b5b60006111aa85828601611144565b92505060206111bb85828601611170565b9150509250929050565b6000602082840312156111db576111da61112f565b5b60006111e984828501611170565b91505092915050565b600073ffffffffffffffffffffffffffffffffffffffff82169050919050565b600061121d826111f2565b9050919050565b61122d81611212565b82525050565b60006020820190506112486000830184611224565b92915050565b611257816110fb565b82525050565b61126681611212565b82525050565b60008115159050919050565b6112818161126c565b82525050565b7f4e487b7100000000000000000000000000000000000000000000000000000000600052602160045260246000fd5b600281106112c7576112c6611287565b5b50565b60008190506112d8826112b6565b919050565b60006112e8826112ca565b9050919050565b6112f8816112dd565b82525050565b60e082016000820151611314600085018261124e565b506020820151611327602085018261124e565b50604082015161133a604085018261124e565b50606082015161134d606085018261125d565b5060808201516113606080850182611278565b5060a082015161137360a0850182611278565b5060c082015161138660c08501826112ef565b50505050565b600060e0820190506113a160008301846112fe565b92915050565b6000819050919050565b60006113cc6113c76113c2846111f2565b6113a7565b6111f2565b9050919050565b60006113de826113b1565b9050919050565b60006113f0826113d3565b9050919050565b611400816113e5565b82525050565b600060208201905061141b60008301846113f7565b92915050565b61142a8161126c565b82525050565b611439816112dd565b82525050565b600060e082019050611454600083018a611105565b6114616020830189611105565b61146e6040830188611105565b61147b6060830187611224565b6114886080830186611421565b61149560a0830185611421565b6114a260c0830184611430565b98975050505050505050565b600082825260208201905092915050565b7f4d7573742062657420736f6d65204d5553440000000000000000000000000000600082015250565b60006114f56012836114ae565b9150611500826114bf565b602082019050919050565b60006020820190508181036000830152611524816114e8565b9050919050565b7f42657420746f6f20686967680000000000000000000000000000000000000000600082015250565b6000611561600c836114ae565b915061156c8261152b565b602082019050919050565b6000602082019050818103600083015261159081611554565b9050919050565b60006060820190506115ac6000830186611224565b6115b96020830185611224565b6115c66040830184611105565b949350505050565b6115d78161126c565b81146115e257600080fd5b50565b6000815190506115f4816115ce565b92915050565b6000602082840312156116105761160f61112f565b5b600061161e848285016115e5565b91505092915050565b7f4d555344207472616e73666572206661696c6564000000000000000000000000600082015250565b600061165d6014836114ae565b915061166882611627565b602082019050919050565b6000602082019050818103600083015261168c81611650565b9050919050565b7f4e487b7100000000000000000000000000000000000000000000000000000000600052601260045260246000fd5b60006116cd826110fb565b91506116d8836110fb565b9250826116e8576116e7611693565b5b828206905092915050565b60006040820190506117086000830185611421565b6117156020830184611430565b9392505050565b60006040820190506117316000830185611224565b61173e6020830184611105565b9392505050565b7f5061796f7574206661696c656400000000000000000000000000000000000000600082015250565b600061177b600d836114ae565b915061178682611745565b602082019050919050565b600060208201905081810360008301526117aa8161176e565b9050919050565b7f4f6e6c79206f776e657200000000000000000000000000000000000000000000600082015250565b60006117e7600a836114ae565b91506117f2826117b1565b602082019050919050565b60006020820190508181036000830152611816816117da565b9050919050565b7f496e73756666696369656e742062616c616e6365000000000000000000000000600082015250565b60006118536014836114ae565b915061185e8261181d565b602082019050919050565b6000602082019050818103600083015261188281611846565b9050919050565b7f5769746864726177616c206661696c6564000000000000000000000000000000600082015250565b60006118bf6011836114ae565b91506118ca82611889565b602082019050919050565b600060208201905081810360008301526118ee816118b2565b9050919050565b7f46756e64696e67206661696c6564000000000000000000000000000000000000600082015250565b600061192b600e836114ae565b9150611936826118f5565b602082019050919050565b6000602082019050818103600083015261195a8161191e565b9050919050565b7f46656520746f6f20686967680000000000000000000000000000000000000000600082015250565b6000611997600c836114ae565b91506119a282611961565b602082019050919050565b600060208201905081810360008301526119c68161198a565b9050919050565b6000815190506119dc81611159565b92915050565b6000602082840312156119f8576119f761112f565b5b6000611a06848285016119cd565b91505092915050565b7f536166654d6174683a206469766973696f6e206279207a65726f000000000000600082015250565b6000611a45601a836114ae565b9150611a5082611a0f565b602082019050919050565b60006020820190508181036000830152611a7481611a38565b9050919050565b7f4e487b7100000000000000000000000000000000000000000000000000000000600052601160045260246000fd5b6000611ab5826110fb565b9150611ac0836110fb565b925082611ad057611acf611693565b5b828204905092915050565b6000611ae6826110fb565b9150611af1836110fb565b9250828201905080821115611b0957611b08611a7b565b5b92915050565b7f536166654d6174683a206164646974696f6e206f766572666c6f770000000000600082015250565b6000611b45601b836114ae565b9150611b5082611b0f565b602082019050919050565b60006020820190508181036000830152611b7481611b38565b9050919050565b6000611b86826110fb565b91507fffffffffffffffffffffffffffffffffffffffffffffffffffffffffffffffff8203611bb857611bb7611a7b565b5b600182019050919050565b6000819050919050565b611bde611bd9826110fb565b611bc3565b82525050565b60008160601b9050919050565b6000611bfc82611be4565b9050919050565b6000611c0e82611bf1565b9050919050565b611c26611c2182611212565b611c03565b82525050565b6000611c388289611bcd565b602082019150611c488288611bcd565b602082019150611c588287611bcd565b602082019150611c688286611c15565b601482019150611c788285611bcd565b602082019150611c888284611bcd565b602082019150819050979650505050505050565b6000611ca7826110fb565b9150611cb2836110fb565b9250828202611cc0816110fb565b91508282048414831517611cd757611cd6611a7b565b5b5092915050565b7f536166654d6174683a206d756c7469706c69636174696f6e206f766572666c6f60008201527f7700000000000000000000000000000000000000000000000000000000000000602082015250565b6000611d3a6021836114ae565b9150611d4582611cde565b604082019050919050565b60006020820190508181036000830152611d6981611d2d565b9050919050565b7f536166654d6174683a207375627472616374696f6e206f766572666c6f770000600082015250565b6000611da6601e836114ae565b9150611db182611d70565b602082019050919050565b60006020820190508181036000830152611dd581611d99565b9050919050565b6000611de7826110fb565b9150611df2836110fb565b9250828203905081811115611e0a57611e09611a7b565b5b9291505056fea2646970667358221220b477ffa7b8cf6f40adecad79843342f547b1309e9fdf737ab460e51bbd76548764736f6c63430008140033",
  "linkReferences": {},
  "deployedLinkReferences": {}
}