{
  "_format": "hh-sol-artifact-1",
  "contractName": "Dice",
  "sourceName": "contracts/Dice.sol",
  "abi": [
    {
      "inputs": [
        {
          "internalType": "address",
          "name": "_musdAddress",
          "type": "address"
        }
      ],
      "stateMutability": "nonpayable",
      "type": "constructor"
    },
    {
      "inputs": [],
      "name": "ReentrancyGuardReentrantCall",
      "type": "error"
    },
    {
      "anonymous": false,
      "inputs": [
        {
          "indexed": true,
          "internalType": "uint256",
          "name": "requestId",
          "type": "uint256"
        },
        {
          "indexed": true,
          "internalType": "address",
          "name": "player",
          "type": "address"
        }
      ],
      "name": "DiceRequest",
      "type": "event"
    },
    {
      "anonymous": false,
      "inputs": [
        {
          "indexed": true,
          "internalType": "uint256",
          "name": "requestId",
          "type": "uint256"
        },
        {
          "indexed": false,
          "internalType": "bool",
          "name": "didWin",
          "type": "bool"
        },
        {
          "indexed": false,
          "internalType": "uint256",
          "name": "roll1",
          "type": "uint256"
        },
        {
          "indexed": false,
          "internalType": "uint256",
          "name": "roll2",
          "type": "uint256"
        },
        {
          "indexed": false,
          "internalType": "uint256",
          "name": "total",
          "type": "uint256"
        }
      ],
      "name": "DiceResult",
      "type": "event"
    },
    {
      "inputs": [
        {
          "internalType": "uint256",
          "name": "amount",
          "type": "uint256"
        }
      ],
      "name": "fundContract",
      "outputs": [],
      "stateMutability": "nonpayable",
      "type": "function"
    },
    {
      "inputs": [],
      "name": "getMUSDAddress",
      "outputs": [
        {
          "internalType": "address",
          "name": "",
          "type": "address"
        }
      ],
      "stateMutability": "view",
      "type": "function"
    },
    {
      "inputs": [],
      "name": "getMUSDBalance",
      "outputs": [
        {
          "internalType": "uint256",
          "name": "",
          "type": "uint256"
        }
      ],
      "stateMutability": "view",
      "type": "function"
    },
    {
      "inputs": [
        {
          "internalType": "uint256",
          "name": "requestId",
          "type": "uint256"
        }
      ],
      "name": "getStatus",
      "outputs": [
        {
          "components": [
            {
              "internalType": "uint256",
              "name": "stakedAmount",
              "type": "uint256"
            },
            {
              "internalType": "uint256",
              "name": "fees",
              "type": "uint256"
            },
            {
              "internalType": "uint256",
              "name": "randomWord1",
              "type": "uint256"
            },
            {
              "internalType": "uint256",
              "name": "randomWord2",
              "type": "uint256"
            },
            {
              "internalType": "address",
              "name": "player",
              "type": "address"
            },
            {
              "internalType": "bool",
              "name": "didWin",
              "type": "bool"
            },
            {
              "internalType": "bool",
              "name": "fulfilled",
              "type": "bool"
            },
            {
              "internalType": "enum Dice.DiceSelection",
              "name": "choice",
              "type": "uint8"
            }
          ],
          "internalType": "struct Dice.DiceStatus",
          "name": "",
          "type": "tuple"
        }
      ],
      "stateMutability": "view",
      "type": "function"
    },
    {
      "inputs": [],
      "name": "houseFee",
      "outputs": [
        {
          "internalType": "uint256",
          "name": "",
          "type": "uint256"
        }
      ],
      "stateMutability": "view",
      "type": "function"
    },
    {
      "inputs": [],
      "name": "musd",
      "outputs": [
        {
          "internalType": "contract IERC20",
          "name": "",
          "type": "address"
        }
      ],
      "stateMutability": "view",
      "type": "function"
    },
    {
      "inputs": [],
      "name": "owner",
      "outputs": [
        {
          "internalType": "address",
          "name": "",
          "type": "address"
        }
      ],
      "stateMutability": "view",
      "type": "function"
    },
    {
      "inputs": [],
      "name": "requestCounter",
      "outputs": [
        {
          "internalType": "uint256",
          "name": "",
          "type": "uint256"
        }
      ],
      "stateMutability": "view",
      "type": "function"
    },
    {
      "inputs": [
        {
          "internalType": "enum Dice.DiceSelection",
          "name": "choice",
          "type": "uint8"
        },
        {
          "internalType": "uint256",
          "name": "betAmount",
          "type": "uint256"
        }
      ],
      "name": "roll",
      "outputs": [
        {
          "internalType": "uint256",
          "name": "",
          "type": "uint256"
        }
      ],
      "stateMutability": "nonpayable",
      "type": "function"
    },
    {
      "inputs": [
        {
          "internalType": "uint256",
          "name": "_fee",
          "type": "uint256"
        }
      ],
      "name": "setHouseFee",
      "outputs": [],
      "stateMutability": "nonpayable",
      "type": "function"
    },
    {
      "inputs": [
        {
          "internalType": "uint256",
          "name": "",
          "type": "uint256"
        }
      ],
      "name": "statuses",
      "outputs": [
        {
          "internalType": "uint256",
          "name": "stakedAmount",
          "type": "uint256"
        },
        {
          "internalType": "uint256",
          "name": "fees",
          "type": "uint256"
        },
        {
          "internalType": "uint256",
          "name": "randomWord1",
          "type": "uint256"
        },
        {
          "internalType": "uint256",
          "name": "randomWord2",
          "type": "uint256"
        },
        {
          "internalType": "address",
          "name": "player",
          "type": "address"
        },
        {
          "internalType": "bool",
          "name": "didWin",
          "type": "bool"
        },
        {
          "internalType": "bool",
          "name": "fulfilled",
          "type": "bool"
        },
        {
          "internalType": "enum Dice.DiceSelection",
          "name": "choice",
          "type": "uint8"
        }
      ],
      "stateMutability": "view",
      "type": "function"
    },
    {
      "inputs": [
        {
          "internalType": "uint256",
          "name": "amount",
          "type": "uint256"
        }
      ],
      "name": "withdraw",
      "outputs": [],
      "stateMutability": "nonpayable",
      "type": "function"
    }
  ],
  "bytecode": "0x6080604052600580553480156200001557600080fd5b50604051620021ad380380620021ad83398181016040528101906200003b919062000146565b600160008190555033600460006101000a81548173ffffffffffffffffffffffffffffffffffffffff021916908373ffffffffffffffffffffffffffffffffffffffff1602179055506000600381905550600060028190555080600660006101000a81548173ffffffffffffffffffffffffffffffffffffffff021916908373ffffffffffffffffffffffffffffffffffffffff1602179055505062000178565b600080fd5b600073ffffffffffffffffffffffffffffffffffffffff82169050919050565b60006200010e82620000e1565b9050919050565b620001208162000101565b81146200012c57600080fd5b50565b600081519050620001408162000115565b92915050565b6000602082840312156200015f576200015e620000dc565b5b60006200016f848285016200012f565b91505092915050565b61202580620001886000396000f3fe608060405234801561001057600080fd5b50600436106100b45760003560e01c80638da5cb5b116100715780638da5cb5b14610179578063973a814e14610197578063a204aa1b146101b5578063cab666d0146101e5578063d8b802a614610203578063e67b932c14610221576100b4565b80630ed469b8146100b95780632e1a7d4d146100d75780633519a2f8146100f357806348698d821461010f5780635a09f2f41461012d5780635c622a0e14610149575b600080fd5b6100c1610258565b6040516100ce9190611247565b60405180910390f35b6100f160048036038101906100ec9190611293565b61025e565b005b61010d60048036038101906101089190611293565b61043c565b005b6101176105b0565b6040516101249190611301565b60405180910390f35b61014760048036038101906101429190611293565b6105da565b005b610163600480360381019061015e9190611293565b6106b8565b604051610170919061146e565b60405180910390f35b6101816107d5565b60405161018e9190611301565b60405180910390f35b61019f6107fb565b6040516101ac9190611247565b60405180910390f35b6101cf60048036038101906101ca91906114af565b610801565b6040516101dc9190611247565b60405180910390f35b6101ed610ddd565b6040516101fa919061154e565b60405180910390f35b61020b610e03565b6040516102189190611247565b60405180910390f35b61023b60048036038101906102369190611293565b610ea6565b60405161024f989796959493929190611587565b60405180910390f35b60055481565b600460009054906101000a900473ffffffffffffffffffffffffffffffffffffffff1673ffffffffffffffffffffffffffffffffffffffff163373ffffffffffffffffffffffffffffffffffffffff16146102ee576040517f08c379a00000000000000000000000000000000000000000000000000000000081526004016102e590611662565b60405180910390fd5b6102f6610e03565b811115610338576040517f08c379a000000000000000000000000000000000000000000000000000000000815260040161032f906116ce565b60405180910390fd5b600660009054906101000a900473ffffffffffffffffffffffffffffffffffffffff1673ffffffffffffffffffffffffffffffffffffffff1663a9059cbb600460009054906101000a900473ffffffffffffffffffffffffffffffffffffffff16836040518363ffffffff1660e01b81526004016103b79291906116ee565b6020604051808303816000875af11580156103d6573d6000803e3d6000fd5b505050506040513d601f19601f820116820180604052508101906103fa9190611743565b610439576040517f08c379a0000000000000000000000000000000000000000000000000000000008152600401610430906117bc565b60405180910390fd5b50565b600460009054906101000a900473ffffffffffffffffffffffffffffffffffffffff1673ffffffffffffffffffffffffffffffffffffffff163373ffffffffffffffffffffffffffffffffffffffff16146104cc576040517f08c379a00000000000000000000000000000000000000000000000000000000081526004016104c390611662565b60405180910390fd5b600660009054906101000a900473ffffffffffffffffffffffffffffffffffffffff1673ffffffffffffffffffffffffffffffffffffffff166323b872dd3330846040518463ffffffff1660e01b815260040161052b939291906117dc565b6020604051808303816000875af115801561054a573d6000803e3d6000fd5b505050506040513d601f19601f8201168201806040525081019061056e9190611743565b6105ad576040517f08c379a00000000000000000000000000000000000000000000000000000000081526004016105a49061185f565b60405180910390fd5b50565b6000600660009054906101000a900473ffffffffffffffffffffffffffffffffffffffff16905090565b600460009054906101000a900473ffffffffffffffffffffffffffffffffffffffff1673ffffffffffffffffffffffffffffffffffffffff163373ffffffffffffffffffffffffffffffffffffffff161461066a576040517f08c379a000000000000000000000000000000000000000000000000000000000815260040161066190611662565b60405180910390fd5b600a8111156106ae576040517f08c379a00000000000000000000000000000000000000000000000000000000081526004016106a5906118cb565b60405180910390fd5b8060058190555050565b6106c06111bd565b6001600083815260200190815260200160002060405180610100016040529081600082015481526020016001820154815260200160028201548152602001600382015481526020016004820160009054906101000a900473ffffffffffffffffffffffffffffffffffffffff1673ffffffffffffffffffffffffffffffffffffffff1673ffffffffffffffffffffffffffffffffffffffff1681526020016004820160149054906101000a900460ff161515151581526020016004820160159054906101000a900460ff161515151581526020016004820160169054906101000a900460ff1660018111156107b8576107b7611355565b5b60018111156107ca576107c9611355565b5b815250509050919050565b600460009054906101000a900473ffffffffffffffffffffffffffffffffffffffff1681565b60025481565b600061080b610f35565b6000821161084e576040517f08c379a000000000000000000000000000000000000000000000000000000000815260040161084590611937565b60405180910390fd5b610869600a61085b610e03565b610f7b90919063ffffffff16565b8211156108ab576040517f08c379a00000000000000000000000000000000000000000000000000000000081526004016108a2906119a3565b60405180910390fd5b600660009054906101000a900473ffffffffffffffffffffffffffffffffffffffff1673ffffffffffffffffffffffffffffffffffffffff166323b872dd3330856040518463ffffffff1660e01b815260040161090a939291906117dc565b6020604051808303816000875af1158015610929573d6000803e3d6000fd5b505050506040513d601f19601f8201168201806040525081019061094d9190611743565b61098c576040517f08c379a000000000000000000000000000000000000000000000000000000000815260040161098390611a0f565b60405180910390fd5b600060025490506109a96001600254610fd390919063ffffffff16565b60028190555060006109df60016109d160066109c3611031565b61108890919063ffffffff16565b610fd390919063ffffffff16565b90506000610a116001610a0360066109f5611031565b61108890919063ffffffff16565b610fd390919063ffffffff16565b90506000610a288284610fd390919063ffffffff16565b90506000806001811115610a3f57610a3e611355565b5b886001811115610a5257610a51611355565b5b148015610a5f5750600682115b15610a6d5760019050610aab565b600180811115610a8057610a7f611355565b5b886001811115610a9357610a92611355565b5b148015610aa05750600682105b15610aaa57600190505b5b6000610ad56064610ac76005548b6110e090919063ffffffff16565b610f7b90919063ffffffff16565b90506040518061010001604052808981526020018281526020018681526020018581526020013373ffffffffffffffffffffffffffffffffffffffff16815260200183151581526020016001151581526020018a6001811115610b3b57610b3a611355565b5b815250600160008881526020019081526020016000206000820151816000015560208201518160010155604082015181600201556060820151816003015560808201518160040160006101000a81548173ffffffffffffffffffffffffffffffffffffffff021916908373ffffffffffffffffffffffffffffffffffffffff16021790555060a08201518160040160146101000a81548160ff02191690831515021790555060c08201518160040160156101000a81548160ff02191690831515021790555060e08201518160040160166101000a81548160ff02191690836001811115610c2b57610c2a611355565b5b02179055509050503373ffffffffffffffffffffffffffffffffffffffff16867f62270b6d04f385f549d9100cfe954a784c3d04cd86416e7735b54ec41877e11f60405160405180910390a3857fe3076aa986ac316ea1ee8d81fbf9a5552dfcfd058e10144afd863b08ae580ad183878787604051610cad9493929190611a2f565b60405180910390a28115610dc6576000610ce382610cd560028c6110e090919063ffffffff16565b61115a90919063ffffffff16565b9050600660009054906101000a900473ffffffffffffffffffffffffffffffffffffffff1673ffffffffffffffffffffffffffffffffffffffff1663a9059cbb33836040518363ffffffff1660e01b8152600401610d429291906116ee565b6020604051808303816000875af1158015610d61573d6000803e3d6000fd5b505050506040513d601f19601f82011682018060405250810190610d859190611743565b610dc4576040517f08c379a0000000000000000000000000000000000000000000000000000000008152600401610dbb90611ac0565b60405180910390fd5b505b859650505050505050610dd76111b3565b92915050565b600660009054906101000a900473ffffffffffffffffffffffffffffffffffffffff1681565b6000600660009054906101000a900473ffffffffffffffffffffffffffffffffffffffff1673ffffffffffffffffffffffffffffffffffffffff166370a08231306040518263ffffffff1660e01b8152600401610e609190611301565b602060405180830381865afa158015610e7d573d6000803e3d6000fd5b505050506040513d601f19601f82011682018060405250810190610ea19190611af5565b905090565b60016020528060005260406000206000915090508060000154908060010154908060020154908060030154908060040160009054906101000a900473ffffffffffffffffffffffffffffffffffffffff16908060040160149054906101000a900460ff16908060040160159054906101000a900460ff16908060040160169054906101000a900460ff16905088565b600260005403610f71576040517f3ee5aeb500000000000000000000000000000000000000000000000000000000815260040160405180910390fd5b6002600081905550565b6000808211610fbf576040517f08c379a0000000000000000000000000000000000000000000000000000000008152600401610fb690611b6e565b60405180910390fd5b8183610fcb9190611bec565b905092915050565b6000808284610fe29190611c1d565b905083811015611027576040517f08c379a000000000000000000000000000000000000000000000000000000000815260040161101e90611c9d565b60405180910390fd5b8091505092915050565b60006003600081548092919061104690611cbd565b91905055504244433360035460025460405160200161106a96959493929190611d6e565b6040516020818303038152906040528051906020012060001c905090565b60008082116110cc576040517f08c379a00000000000000000000000000000000000000000000000000000000081526004016110c390611e2a565b60405180910390fd5b81836110d89190611e4a565b905092915050565b60008083036110f25760009050611154565b600082846111009190611e7b565b905082848261110f9190611bec565b1461114f576040517f08c379a000000000000000000000000000000000000000000000000000000000815260040161114690611f2f565b60405180910390fd5b809150505b92915050565b60008282111561119f576040517f08c379a000000000000000000000000000000000000000000000000000000000815260040161119690611f9b565b60405180910390fd5b81836111ab9190611fbb565b905092915050565b6001600081905550565b60405180610100016040528060008152602001600081526020016000815260200160008152602001600073ffffffffffffffffffffffffffffffffffffffff1681526020016000151581526020016000151581526020016000600181111561122857611227611355565b5b81525090565b6000819050919050565b6112418161122e565b82525050565b600060208201905061125c6000830184611238565b92915050565b600080fd5b6112708161122e565b811461127b57600080fd5b50565b60008135905061128d81611267565b92915050565b6000602082840312156112a9576112a8611262565b5b60006112b78482850161127e565b91505092915050565b600073ffffffffffffffffffffffffffffffffffffffff82169050919050565b60006112eb826112c0565b9050919050565b6112fb816112e0565b82525050565b600060208201905061131660008301846112f2565b92915050565b6113258161122e565b82525050565b611334816112e0565b82525050565b60008115159050919050565b61134f8161133a565b82525050565b7f4e487b7100000000000000000000000000000000000000000000000000000000600052602160045260246000fd5b6002811061139557611394611355565b5b50565b60008190506113a682611384565b919050565b60006113b682611398565b9050919050565b6113c6816113ab565b82525050565b610100820160008201516113e3600085018261131c565b5060208201516113f6602085018261131c565b506040820151611409604085018261131c565b50606082015161141c606085018261131c565b50608082015161142f608085018261132b565b5060a082015161144260a0850182611346565b5060c082015161145560c0850182611346565b5060e082015161146860e08501826113bd565b50505050565b60006101008201905061148460008301846113cc565b92915050565b6002811061149757600080fd5b50565b6000813590506114a98161148a565b92915050565b600080604083850312156114c6576114c5611262565b5b60006114d48582860161149a565b92505060206114e58582860161127e565b9150509250929050565b6000819050919050565b600061151461150f61150a846112c0565b6114ef565b6112c0565b9050919050565b6000611526826114f9565b9050919050565b60006115388261151b565b9050919050565b6115488161152d565b82525050565b6000602082019050611563600083018461153f565b92915050565b6115728161133a565b82525050565b611581816113ab565b82525050565b60006101008201905061159d600083018b611238565b6115aa602083018a611238565b6115b76040830189611238565b6115c46060830188611238565b6115d160808301876112f2565b6115de60a0830186611569565b6115eb60c0830185611569565b6115f860e0830184611578565b9998505050505050505050565b600082825260208201905092915050565b7f4f6e6c79206f776e657200000000000000000000000000000000000000000000600082015250565b600061164c600a83611605565b915061165782611616565b602082019050919050565b6000602082019050818103600083015261167b8161163f565b9050919050565b7f496e73756666696369656e742062616c616e6365000000000000000000000000600082015250565b60006116b8601483611605565b91506116c382611682565b602082019050919050565b600060208201905081810360008301526116e7816116ab565b9050919050565b600060408201905061170360008301856112f2565b6117106020830184611238565b9392505050565b6117208161133a565b811461172b57600080fd5b50565b60008151905061173d81611717565b92915050565b60006020828403121561175957611758611262565b5b60006117678482850161172e565b91505092915050565b7f5769746864726177616c206661696c6564000000000000000000000000000000600082015250565b60006117a6601183611605565b91506117b182611770565b602082019050919050565b600060208201905081810360008301526117d581611799565b9050919050565b60006060820190506117f160008301866112f2565b6117fe60208301856112f2565b61180b6040830184611238565b949350505050565b7f46756e64696e67206661696c6564000000000000000000000000000000000000600082015250565b6000611849600e83611605565b915061185482611813565b602082019050919050565b600060208201905081810360008301526118788161183c565b9050919050565b7f46656520746f6f20686967680000000000000000000000000000000000000000600082015250565b60006118b5600c83611605565b91506118c08261187f565b602082019050919050565b600060208201905081810360008301526118e4816118a8565b9050919050565b7f4d7573742062657420736f6d65204d5553440000000000000000000000000000600082015250565b6000611921601283611605565b915061192c826118eb565b602082019050919050565b6000602082019050818103600083015261195081611914565b9050919050565b7f42657420746f6f20686967680000000000000000000000000000000000000000600082015250565b600061198d600c83611605565b915061199882611957565b602082019050919050565b600060208201905081810360008301526119bc81611980565b9050919050565b7f4d555344207472616e73666572206661696c6564000000000000000000000000600082015250565b60006119f9601483611605565b9150611a04826119c3565b602082019050919050565b60006020820190508181036000830152611a28816119ec565b9050919050565b6000608082019050611a446000830187611569565b611a516020830186611238565b611a5e6040830185611238565b611a6b6060830184611238565b95945050505050565b7f5061796f7574206661696c656400000000000000000000000000000000000000600082015250565b6000611aaa600d83611605565b9150611ab582611a74565b602082019050919050565b60006020820190508181036000830152611ad981611a9d565b9050919050565b600081519050611aef81611267565b92915050565b600060208284031215611b0b57611b0a611262565b5b6000611b1984828501611ae0565b91505092915050565b7f536166654d6174683a206469766973696f6e206279207a65726f000000000000600082015250565b6000611b58601a83611605565b9150611b6382611b22565b602082019050919050565b60006020820190508181036000830152611b8781611b4b565b9050919050565b7f4e487b7100000000000000000000000000000000000000000000000000000000600052601260045260246000fd5b7f4e487b7100000000000000000000000000000000000000000000000000000000600052601160045260246000fd5b6000611bf78261122e565b9150611c028361122e565b925082611c1257611c11611b8e565b5b828204905092915050565b6000611c288261122e565b9150611c338361122e565b9250828201905080821115611c4b57611c4a611bbd565b5b92915050565b7f536166654d6174683a206164646974696f6e206f766572666c6f770000000000600082015250565b6000611c87601b83611605565b9150611c9282611c51565b602082019050919050565b60006020820190508181036000830152611cb681611c7a565b9050919050565b6000611cc88261122e565b91507fffffffffffffffffffffffffffffffffffffffffffffffffffffffffffffffff8203611cfa57611cf9611bbd565b5b600182019050919050565b6000819050919050565b611d20611d1b8261122e565b611d05565b82525050565b60008160601b9050919050565b6000611d3e82611d26565b9050919050565b6000611d5082611d33565b9050919050565b611d68611d63826112e0565b611d45565b82525050565b6000611d7a8289611d0f565b602082019150611d8a8288611d0f565b602082019150611d9a8287611d0f565b602082019150611daa8286611d57565b601482019150611dba8285611d0f565b602082019150611dca8284611d0f565b602082019150819050979650505050505050565b7f536166654d6174683a206d6f64756c6f206279207a65726f0000000000000000600082015250565b6000611e14601883611605565b9150611e1f82611dde565b602082019050919050565b60006020820190508181036000830152611e4381611e07565b9050919050565b6000611e558261122e565b9150611e608361122e565b925082611e7057611e6f611b8e565b5b828206905092915050565b6000611e868261122e565b9150611e918361122e565b9250828202611e9f8161122e565b91508282048414831517611eb657611eb5611bbd565b5b5092915050565b7f536166654d6174683a206d756c7469706c69636174696f6e206f766572666c6f60008201527f7700000000000000000000000000000000000000000000000000000000000000602082015250565b6000611f19602183611605565b9150611f2482611ebd565b604082019050919050565b60006020820190508181036000830152611f4881611f0c565b9050919050565b7f536166654d6174683a207375627472616374696f6e206f766572666c6f770000600082015250565b6000611f85601e83611605565b9150611f9082611f4f565b602082019050919050565b60006020820190508181036000830152611fb481611f78565b9050919050565b6000611fc68261122e565b9150611fd18361122e565b9250828203905081811115611fe957611fe8611bbd565b5b9291505056fea2646970667358221220b64c2de2c49a3b609f8d83f87658f8311193843d5f479f4be04ae44035eda4a764736f6c63430008140033",
  "linkReferences": {},
  "deployedLinkReferences": {}
}