{
  "_format": "hh-sol-artifact-1",
  "contractName": "CoinFlip",
  "sourceName": "contracts/CoinFlip.sol",
  "abi": [
    {
      "inputs": [],
      "stateMutability": "nonpayable",
      "type": "constructor"
    },
    {
      "inputs": [],
      "name": "ReentrancyGuardReentrantCall",
      "type": "error"
    },
    {
      "anonymous": false,
      "inputs": [
        {
          "indexed": true,
          "internalType": "uint256",
          "name": "requestId",
          "type": "uint256"
        },
        {
          "indexed": true,
          "internalType": "address",
          "name": "player",
          "type": "address"
        }
      ],
      "name": "CoinFlipRequest",
      "type": "event"
    },
    {
      "anonymous": false,
      "inputs": [
        {
          "indexed": true,
          "internalType": "uint256",
          "name": "requestId",
          "type": "uint256"
        },
        {
          "indexed": false,
          "internalType": "bool",
          "name": "didWin",
          "type": "bool"
        },
        {
          "indexed": false,
          "internalType": "enum CoinFlip.CoinFlipSelection",
          "name": "result",
          "type": "uint8"
        }
      ],
      "name": "CoinFlipResult",
      "type": "event"
    },
    {
      "inputs": [
        {
          "internalType": "enum CoinFlip.CoinFlipSelection",
          "name": "choice",
          "type": "uint8"
        }
      ],
      "name": "flip",
      "outputs": [
        {
          "internalType": "uint256",
          "name": "",
          "type": "uint256"
        }
      ],
      "stateMutability": "payable",
      "type": "function"
    },
    {
      "inputs": [],
      "name": "fundContract",
      "outputs": [],
      "stateMutability": "payable",
      "type": "function"
    },
    {
      "inputs": [],
      "name": "getBalance",
      "outputs": [
        {
          "internalType": "uint256",
          "name": "",
          "type": "uint256"
        }
      ],
      "stateMutability": "view",
      "type": "function"
    },
    {
      "inputs": [
        {
          "internalType": "uint256",
          "name": "requestId",
          "type": "uint256"
        }
      ],
      "name": "getStatus",
      "outputs": [
        {
          "components": [
            {
              "internalType": "uint256",
              "name": "stakedAmount",
              "type": "uint256"
            },
            {
              "internalType": "uint256",
              "name": "fees",
              "type": "uint256"
            },
            {
              "internalType": "uint256",
              "name": "randomWord",
              "type": "uint256"
            },
            {
              "internalType": "address",
              "name": "player",
              "type": "address"
            },
            {
              "internalType": "bool",
              "name": "didWin",
              "type": "bool"
            },
            {
              "internalType": "bool",
              "name": "fulfilled",
              "type": "bool"
            },
            {
              "internalType": "enum CoinFlip.CoinFlipSelection",
              "name": "choice",
              "type": "uint8"
            }
          ],
          "internalType": "struct CoinFlip.CoinFlipStatus",
          "name": "",
          "type": "tuple"
        }
      ],
      "stateMutability": "view",
      "type": "function"
    },
    {
      "inputs": [],
      "name": "houseFee",
      "outputs": [
        {
          "internalType": "uint256",
          "name": "",
          "type": "uint256"
        }
      ],
      "stateMutability": "view",
      "type": "function"
    },
    {
      "inputs": [],
      "name": "owner",
      "outputs": [
        {
          "internalType": "address",
          "name": "",
          "type": "address"
        }
      ],
      "stateMutability": "view",
      "type": "function"
    },
    {
      "inputs": [
        {
          "internalType": "uint256",
          "name": "_fee",
          "type": "uint256"
        }
      ],
      "name": "setHouseFee",
      "outputs": [],
      "stateMutability": "nonpayable",
      "type": "function"
    },
    {
      "inputs": [
        {
          "internalType": "uint256",
          "name": "",
          "type": "uint256"
        }
      ],
      "name": "statuses",
      "outputs": [
        {
          "internalType": "uint256",
          "name": "stakedAmount",
          "type": "uint256"
        },
        {
          "internalType": "uint256",
          "name": "fees",
          "type": "uint256"
        },
        {
          "internalType": "uint256",
          "name": "randomWord",
          "type": "uint256"
        },
        {
          "internalType": "address",
          "name": "player",
          "type": "address"
        },
        {
          "internalType": "bool",
          "name": "didWin",
          "type": "bool"
        },
        {
          "internalType": "bool",
          "name": "fulfilled",
          "type": "bool"
        },
        {
          "internalType": "enum CoinFlip.CoinFlipSelection",
          "name": "choice",
          "type": "uint8"
        }
      ],
      "stateMutability": "view",
      "type": "function"
    },
    {
      "inputs": [
        {
          "internalType": "uint256",
          "name": "amount",
          "type": "uint256"
        }
      ],
      "name": "withdraw",
      "outputs": [],
      "stateMutability": "nonpayable",
      "type": "function"
    },
    {
      "stateMutability": "payable",
      "type": "receive"
    }
  ],
  "bytecode": "0x60806040526005805534801561001457600080fd5b50600160008190555033600460006101000a81548173ffffffffffffffffffffffffffffffffffffffff021916908373ffffffffffffffffffffffffffffffffffffffff160217905550600060038190555061179c806100756000396000f3fe60806040526004361061008a5760003560e01c80635c622a0e116100595780635c622a0e1461013e578063638c06371461017b5780638da5cb5b146101ab578063bd097e21146101d6578063e67b932c146101e057610091565b80630ed469b81461009657806312065fe0146100c15780632e1a7d4d146100ec5780635a09f2f41461011557610091565b3661009157005b600080fd5b3480156100a257600080fd5b506100ab610223565b6040516100b89190610d46565b60405180910390f35b3480156100cd57600080fd5b506100d6610229565b6040516100e39190610d46565b60405180910390f35b3480156100f857600080fd5b50610113600480360381019061010e9190610d92565b610231565b005b34801561012157600080fd5b5061013c60048036038101906101379190610d92565b6103d6565b005b34801561014a57600080fd5b5061016560048036038101906101609190610d92565b6104b4565b6040516101729190610f2f565b60405180910390f35b61019560048036038101906101909190610f6f565b6105c6565b6040516101a29190610d46565b60405180910390f35b3480156101b757600080fd5b506101c06109b7565b6040516101cd9190610fab565b60405180910390f35b6101de6109dd565b005b3480156101ec57600080fd5b5061020760048036038101906102029190610d92565b610a6f565b60405161021a9796959493929190610fe4565b60405180910390f35b60055481565b600047905090565b600460009054906101000a900473ffffffffffffffffffffffffffffffffffffffff1673ffffffffffffffffffffffffffffffffffffffff163373ffffffffffffffffffffffffffffffffffffffff16146102c1576040517f08c379a00000000000000000000000000000000000000000000000000000000081526004016102b8906110b0565b60405180910390fd5b47811115610304576040517f08c379a00000000000000000000000000000000000000000000000000000000081526004016102fb9061111c565b60405180910390fd5b6000600460009054906101000a900473ffffffffffffffffffffffffffffffffffffffff1673ffffffffffffffffffffffffffffffffffffffff168260405161034c9061116d565b60006040518083038185875af1925050503d8060008114610389576040519150601f19603f3d011682016040523d82523d6000602084013e61038e565b606091505b50509050806103d2576040517f08c379a00000000000000000000000000000000000000000000000000000000081526004016103c9906111ce565b60405180910390fd5b5050565b600460009054906101000a900473ffffffffffffffffffffffffffffffffffffffff1673ffffffffffffffffffffffffffffffffffffffff163373ffffffffffffffffffffffffffffffffffffffff1614610466576040517f08c379a000000000000000000000000000000000000000000000000000000000815260040161045d906110b0565b60405180910390fd5b600a8111156104aa576040517f08c379a00000000000000000000000000000000000000000000000000000000081526004016104a19061123a565b60405180910390fd5b8060058190555050565b6104bc610cc4565b600160008381526020019081526020016000206040518060e00160405290816000820154815260200160018201548152602001600282015481526020016003820160009054906101000a900473ffffffffffffffffffffffffffffffffffffffff1673ffffffffffffffffffffffffffffffffffffffff1673ffffffffffffffffffffffffffffffffffffffff1681526020016003820160149054906101000a900460ff161515151581526020016003820160159054906101000a900460ff161515151581526020016003820160169054906101000a900460ff1660018111156105a9576105a8610e2a565b5b60018111156105bb576105ba610e2a565b5b815250509050919050565b60006105d0610af8565b60003411610613576040517f08c379a000000000000000000000000000000000000000000000000000000000815260040161060a906112a6565b60405180910390fd5b600a476106209190611324565b341115610662576040517f08c379a0000000000000000000000000000000000000000000000000000000008152600401610659906113a1565b60405180910390fd5b600060026000815480929190610677906113c1565b9190505590506000610687610b3e565b90506000806002836106999190611409565b036106a357600190505b60008160018111156106b8576106b7610e2a565b5b8660018111156106cb576106ca610e2a565b5b14905060006106f860646106ea60055434610b8f90919063ffffffff16565b610c0990919063ffffffff16565b90506040518060e001604052803481526020018281526020018581526020013373ffffffffffffffffffffffffffffffffffffffff168152602001831515815260200160011515815260200188600181111561075757610756610e2a565b5b8152506001600087815260200190815260200160002060008201518160000155602082015181600101556040820151816002015560608201518160030160006101000a81548173ffffffffffffffffffffffffffffffffffffffff021916908373ffffffffffffffffffffffffffffffffffffffff16021790555060808201518160030160146101000a81548160ff02191690831515021790555060a08201518160030160156101000a81548160ff02191690831515021790555060c08201518160030160166101000a81548160ff0219169083600181111561083d5761083c610e2a565b5b02179055509050503373ffffffffffffffffffffffffffffffffffffffff16857f9388f38462f1d32b96960210941f289e387426240887e8b27db87b298d83690060405160405180910390a3847f4157afa122b3d5600395f9aaa910540fb899c7a4ae000f67c658fb763d6fe57783856040516108bb92919061143a565b60405180910390a281156109a25760006108f1826108e3600234610b8f90919063ffffffff16565b610c6190919063ffffffff16565b905060003373ffffffffffffffffffffffffffffffffffffffff16826040516109199061116d565b60006040518083038185875af1925050503d8060008114610956576040519150601f19603f3d011682016040523d82523d6000602084013e61095b565b606091505b505090508061099f576040517f08c379a0000000000000000000000000000000000000000000000000000000008152600401610996906114af565b60405180910390fd5b50505b84955050505050506109b2610cba565b919050565b600460009054906101000a900473ffffffffffffffffffffffffffffffffffffffff1681565b600460009054906101000a900473ffffffffffffffffffffffffffffffffffffffff1673ffffffffffffffffffffffffffffffffffffffff163373ffffffffffffffffffffffffffffffffffffffff1614610a6d576040517f08c379a0000000000000000000000000000000000000000000000000000000008152600401610a64906110b0565b60405180910390fd5b565b60016020528060005260406000206000915090508060000154908060010154908060020154908060030160009054906101000a900473ffffffffffffffffffffffffffffffffffffffff16908060030160149054906101000a900460ff16908060030160159054906101000a900460ff16908060030160169054906101000a900460ff16905087565b600260005403610b34576040517f3ee5aeb500000000000000000000000000000000000000000000000000000000815260040160405180910390fd5b6002600081905550565b600060036000815480929190610b53906113c1565b9190505550424433600354604051602001610b719493929190611538565b6040516020818303038152906040528051906020012060001c905090565b6000808303610ba15760009050610c03565b60008284610baf9190611586565b9050828482610bbe9190611324565b14610bfe576040517f08c379a0000000000000000000000000000000000000000000000000000000008152600401610bf59061163a565b60405180910390fd5b809150505b92915050565b6000808211610c4d576040517f08c379a0000000000000000000000000000000000000000000000000000000008152600401610c44906116a6565b60405180910390fd5b8183610c599190611324565b905092915050565b600082821115610ca6576040517f08c379a0000000000000000000000000000000000000000000000000000000008152600401610c9d90611712565b60405180910390fd5b8183610cb29190611732565b905092915050565b6001600081905550565b6040518060e00160405280600081526020016000815260200160008152602001600073ffffffffffffffffffffffffffffffffffffffff16815260200160001515815260200160001515815260200160006001811115610d2757610d26610e2a565b5b81525090565b6000819050919050565b610d4081610d2d565b82525050565b6000602082019050610d5b6000830184610d37565b92915050565b600080fd5b610d6f81610d2d565b8114610d7a57600080fd5b50565b600081359050610d8c81610d66565b92915050565b600060208284031215610da857610da7610d61565b5b6000610db684828501610d7d565b91505092915050565b610dc881610d2d565b82525050565b600073ffffffffffffffffffffffffffffffffffffffff82169050919050565b6000610df982610dce565b9050919050565b610e0981610dee565b82525050565b60008115159050919050565b610e2481610e0f565b82525050565b7f4e487b7100000000000000000000000000000000000000000000000000000000600052602160045260246000fd5b60028110610e6a57610e69610e2a565b5b50565b6000819050610e7b82610e59565b919050565b6000610e8b82610e6d565b9050919050565b610e9b81610e80565b82525050565b60e082016000820151610eb76000850182610dbf565b506020820151610eca6020850182610dbf565b506040820151610edd6040850182610dbf565b506060820151610ef06060850182610e00565b506080820151610f036080850182610e1b565b5060a0820151610f1660a0850182610e1b565b5060c0820151610f2960c0850182610e92565b50505050565b600060e082019050610f446000830184610ea1565b92915050565b60028110610f5757600080fd5b50565b600081359050610f6981610f4a565b92915050565b600060208284031215610f8557610f84610d61565b5b6000610f9384828501610f5a565b91505092915050565b610fa581610dee565b82525050565b6000602082019050610fc06000830184610f9c565b92915050565b610fcf81610e0f565b82525050565b610fde81610e80565b82525050565b600060e082019050610ff9600083018a610d37565b6110066020830189610d37565b6110136040830188610d37565b6110206060830187610f9c565b61102d6080830186610fc6565b61103a60a0830185610fc6565b61104760c0830184610fd5565b98975050505050505050565b600082825260208201905092915050565b7f4f6e6c79206f776e657200000000000000000000000000000000000000000000600082015250565b600061109a600a83611053565b91506110a582611064565b602082019050919050565b600060208201905081810360008301526110c98161108d565b9050919050565b7f496e73756666696369656e742062616c616e6365000000000000000000000000600082015250565b6000611106601483611053565b9150611111826110d0565b602082019050919050565b60006020820190508181036000830152611135816110f9565b9050919050565b600081905092915050565b50565b600061115760008361113c565b915061116282611147565b600082019050919050565b60006111788261114a565b9150819050919050565b7f5769746864726177616c206661696c6564000000000000000000000000000000600082015250565b60006111b8601183611053565b91506111c382611182565b602082019050919050565b600060208201905081810360008301526111e7816111ab565b9050919050565b7f46656520746f6f20686967680000000000000000000000000000000000000000600082015250565b6000611224600c83611053565b915061122f826111ee565b602082019050919050565b6000602082019050818103600083015261125381611217565b9050919050565b7f4d7573742073656e642042544320746f20706c61790000000000000000000000600082015250565b6000611290601583611053565b915061129b8261125a565b602082019050919050565b600060208201905081810360008301526112bf81611283565b9050919050565b7f4e487b7100000000000000000000000000000000000000000000000000000000600052601260045260246000fd5b7f4e487b7100000000000000000000000000000000000000000000000000000000600052601160045260246000fd5b600061132f82610d2d565b915061133a83610d2d565b92508261134a576113496112c6565b5b828204905092915050565b7f42657420746f6f20686967680000000000000000000000000000000000000000600082015250565b600061138b600c83611053565b915061139682611355565b602082019050919050565b600060208201905081810360008301526113ba8161137e565b9050919050565b60006113cc82610d2d565b91507fffffffffffffffffffffffffffffffffffffffffffffffffffffffffffffffff82036113fe576113fd6112f5565b5b600182019050919050565b600061141482610d2d565b915061141f83610d2d565b92508261142f5761142e6112c6565b5b828206905092915050565b600060408201905061144f6000830185610fc6565b61145c6020830184610fd5565b9392505050565b7f5472616e73666572206661696c65640000000000000000000000000000000000600082015250565b6000611499600f83611053565b91506114a482611463565b602082019050919050565b600060208201905081810360008301526114c88161148c565b9050919050565b6000819050919050565b6114ea6114e582610d2d565b6114cf565b82525050565b60008160601b9050919050565b6000611508826114f0565b9050919050565b600061151a826114fd565b9050919050565b61153261152d82610dee565b61150f565b82525050565b600061154482876114d9565b60208201915061155482866114d9565b6020820191506115648285611521565b60148201915061157482846114d9565b60208201915081905095945050505050565b600061159182610d2d565b915061159c83610d2d565b92508282026115aa81610d2d565b915082820484148315176115c1576115c06112f5565b5b5092915050565b7f536166654d6174683a206d756c7469706c69636174696f6e206f766572666c6f60008201527f7700000000000000000000000000000000000000000000000000000000000000602082015250565b6000611624602183611053565b915061162f826115c8565b604082019050919050565b6000602082019050818103600083015261165381611617565b9050919050565b7f536166654d6174683a206469766973696f6e206279207a65726f000000000000600082015250565b6000611690601a83611053565b915061169b8261165a565b602082019050919050565b600060208201905081810360008301526116bf81611683565b9050919050565b7f536166654d6174683a207375627472616374696f6e206f766572666c6f770000600082015250565b60006116fc601e83611053565b9150611707826116c6565b602082019050919050565b6000602082019050818103600083015261172b816116ef565b9050919050565b600061173d82610d2d565b915061174883610d2d565b92508282039050818111156117605761175f6112f5565b5b9291505056fea2646970667358221220f507ed0c3dd6aac9435d51c5888010a761db46ed575af632e2e12063325b6ee164736f6c63430008140033",
  "linkReferences": {},
  "deployedLinkReferences": {}
}